:020000040800F2
:10000000FCFF0020110500086105000861050008DB
:100010006105000861050008610500080000000096
:100020000000000000000000000000006105000862
:10003000610500080000000061050008852F000828
:1000400061050008610500086105000861050008F8
:1000500061050008610500086105000861050008E8
:1000600061050008610500086105000861050008D8
:1000700061050008610500086105000861050008C8
:100080006105000861050008610500080000000026
:1000900000000000000000000000000061050008F2
:1000A0006105000861050008610500086105000898
:1000B0006105000861050008610500086105000888
:1000C0006105000861050008610500086105000878
:1000D00061050008610500086105000800000000D6
:1000E00061050008610500086105000800000000C6
:1000F0000000000000000000000000006105000892
:1001000000000000610500086105000861050008A5
:1001100000000000000000000000000000000000DF
:100120006105000861050008610500086105000817
:100130006105000800000000000000000000000051
:10014000000000000000000000000000E12F000897
:1001500061050008610500086105000861050008E7
:1001600061050008610500080000000000000000B3
:10017000000000000000000000000000000000007F
:100180000000000061050008000000000000000001
:0401900061050008FD
:1001C00070B50D4E0D4D761BB61006D000240134CF
:1001D00055F8043B9847A642F9D1094E094D761BC4
:1001E00002F0CEFEB61006D00024013455F8043BD0
:1001F0009847A642F9D170BDF83C0008F83C0008C9
:10020000F83C0008F83C0008844641EA000313F07B
:1002100003036DD1403A41D351F8043B40F8043B0D
:1002200051F8043B40F8043B51F8043B40F8043BD0
:1002300051F8043B40F8043B51F8043B40F8043BC0
:1002400051F8043B40F8043B51F8043B40F8043BB0
:1002500051F8043B40F8043B51F8043B40F8043BA0
:1002600051F8043B40F8043B51F8043B40F8043B90
:1002700051F8043B40F8043B51F8043B40F8043B80
:1002800051F8043B40F8043B51F8043B40F8043B70
:1002900051F8043B40F8043B403ABDD2303211D310
:1002A00051F8043B40F8043B51F8043B40F8043B50
:1002B00051F8043B40F8043B51F8043B40F8043B40
:1002C000103AEDD20C3205D351F8043B40F8043B10
:1002D000043AF9D2043208D0D2071CBF11F8013B0E
:1002E00000F8013B01D30B8803806046704700BFD4
:1002F000082A13D38B078DD010F003038AD0C3F1E3
:100300000403D21ADB071CBF11F8013B00F8013BC4
:1003100080D331F8023B20F8023B7BE7043AD9D383
:10032000013A11F8013B00F8013BF9D20B78037058
:100330004B7843708B78837060467047F0B48607C3
:1003400046D0541E002A3CD0CAB2034602E014F143
:10035000FF3436D303F8012B9D07F8D1032C29D99C
:10036000CDB245EA05250F2C45EA054533D9A4F160
:100370001006360903F1200707EB061703F11002F8
:1003800042E9045542E902551032BA42F8D1721CD2
:1003900014F00C0F03EB021204F00F0613D0331FFE
:1003A00023F003030433134442F8045B9342FBD16C
:1003B00006F003042CB1C9B21C4403F8011B9C4293
:1003C000FBD1F0BC704734461346002CF3D1F8E75C
:1003D00014460346C2E71A462646E0E7000000003E
:1003E000000000000000000000000000000000000D
:1003F00000000000000000000000000000000000FD
:1004000090F800F06DE9024520F007016FF0000C54
:1004100010F0070491F820F040F049804FF00004FC
:100420006FF00700D1E9002391F840F000F10800D7
:1004300082FA4CF2A4FA8CF283FA4CF3A2FA8CF30F
:100440004BBBD1E9022382FA4CF200F10800A4FA76
:100450008CF283FA4CF3A2FA8CF3E3B9D1E90423CA
:1004600082FA4CF200F10800A4FA8CF283FA4CF301
:10047000A2FA8CF37BB9D1E9062301F1200182FABB
:100480004CF200F10800A4FA8CF283FA4CF3A2FAC1
:100490008CF3002BC6D0002A04BF04301A4612BACF
:1004A000B2FA82F2FDE8024500EBD2007047D1E9D2
:1004B000002304F00305C4F100004FEAC50514F061
:1004C000040F91F840F00CFA05F562EA05021CBF32
:1004D00063EA050362464FF00004A9E753B94AB93D
:1004E000002908BF00281CBF4FF0FF314FF0FF303C
:1004F00000F00CB8ADF1080C6DE904CE03F0F8F88B
:10050000DDF804E0DDE9022304B07047704700BF66
:10051000DFF834D00D480E490E4A002302E0D458CB
:10052000C4500433C4188C42F9D30B4A0B4C00233B
:1005300001E013600432A242FBD303F0CFF8FFF7CF
:100540003FFE01F0DFFC7047FCFF002000000020B0
:100550006C000020F83C00086C000020D41B002038
:10056000FEE700F07F014B01C20903F1A04331D047
:1005700003F5106019B1D3F80029002A13DBD3F872
:10058000002942F00262C3F800294FF0A0431A6923
:1005900042EA811119611A6942F020021A611A694E
:1005A0009006FCD47047D3F8002942F00062C3F8EB
:1005B000002982685206FCD5D3F8002942F0804217
:1005C00042F40012C3F8002983689B07FCD502237C
:1005D0008360DAE703F5306019B1D3F8002B002A05
:1005E00006DBD3F8002B42F40012C3F8002B70474F
:1005F0004FF0A042D2F8041841F40071C2F8041878
:1006000051690906FCD5D3F8002B42F0804242F430
:100610000012C3F8002B83689B07FCD502234FF020
:10062000A0428360D2F8043843F48063C2F80438EF
:1006300070474FF0E023D3F8F03DDB0700D500BE54
:10064000002070470B4B63B10B4B1B78834206D9DC
:100650000A4B1B6800EB400003EBC0007047C01A58
:10066000C0B2012803D8064B00EB4000F4E700209D
:10067000704700BF000000007400002070000020E0
:10068000503A0008CB6802490B610021184700BFAF
:10069000780000200B4B4FF47A721B68B3FBF2F327
:1006A00058430138B0F1807F0AD24FF0E023064A68
:1006B0005861F02182F8231000229A6107221A6102
:1006C000704700BF0000002000ED00E04FF0E02286
:1006D000136923F001031361704700002DE9F74F00
:1006E000DFF890C1614ADFF8908100234FF0010EDE
:1006F0000D680EFA03F404EA0506AC4340F0A78047
:100700004D6805F003055F000324013DBC40012D49
:100710006FEA040411D8856805EA0409CD68BD4074
:1007200045EA09058560456825EA06094D68C5F36F
:1007300000159D4045EA090545604D6805F0030533
:10074000032D23D0C56805EA04098D68BD4045EA3C
:100750000905C5604D6805F00305022D16D14FEA65
:10076000D30A00EB8A0A03F0070BDAF820504FEAAD
:100770008B0B4FF00F0909FA0BF925EA09090D69EE
:1007800005FA0BF545EA0905CAF8205005682C4022
:100790004D6805F00305BD402C4304604C6814F41B
:1007A000403F54D04FF0000BCDF804B0DCF844507B
:1007B0002F4C45F48045CCF84450DCF8445005F407
:1007C00080450195019D23F0030505F1804505F560
:1007D0009C3503F00309D5F808A04FEA89090F27D3
:1007E00007FA09F7A0422AEA070737D004F5806420
:1007F000A04235D004F58064A04233D0404533D0C8
:1008000004F50064A0420CBF0424072404FA09F490
:100810003C43AC604C689768F543E40254BF2F40FA
:10082000374397604C68D768A40254BF2F403743C2
:10083000D7604C685768A40354BF2F4037435760B4
:100840004C681768E40354BF2F40374317600133E7
:10085000102B7FF44DAF03B0BDE8F08F5C46D5E7B9
:100860000124D3E70224D1E70324CFE7003C014071
:100870000000024000380240000C024030B52B4B13
:100880002B4C0022DA6125682A4AD168C90344D476
:10089000D168C80744BF0121D160D06810F4F97055
:1008A00042D0D168C90605D5D96941F01001D96196
:1008B0001021D1601F4AD1688D0605D5D96941F054
:1008C0000801D9612021D160D1684C0605D5D969CC
:1008D00041F00401D9614021D160164AD16808066F
:1008E00005D5D96941F00201D9618021D160D16873
:1008F000C90506D5D96941F00101D9614FF480716C
:10090000D1600C49CA68920705D5DA6942F0200225
:10091000DA610223CB60012006E0411CB5D02168DA
:10092000491B8142B1D9032030BD00BF301B0020DC
:10093000501B0020003C024030B560B93A4B3B4DA3
:1009400003EB011335F811405B89A34228BF23460E
:10095000E41A25F81140450101294FEAC24405F186
:10096000A04231D11C43C2F81049D2F8001941F01D
:100970000441C2F80019D2F8001901F44021B1F580
:10098000802F15D1284901EB4011097F01290FD192
:100990004FF0A041D1F80848D2F8001914F4807F34
:1009A00014BF4FF080544FF000542143C2F8001997
:1009B0004BB14FF0A0420123D2F8341803FA00F0F3
:1009C0000843C2F8340830BDD2F8101B01F0604172
:1009D000C2F8101BD2F8101B0C432343C2F8103B83
:1009E000D2F8003B43F00443C2F8003BD2F8003B8E
:1009F00003F44023B3F5802FE5D10B4B03EB4010FC
:100A0000037B012BDFD14FF0A043D3F80818D2F8B5
:100A1000003B11F4807F14BF4FF080514FF0005124
:100A20000B43C2F8003BCEE7541B0020121B0020F2
:100A300010B50B4B00F07F0203EB420303EBD01425
:100A40001834E3799B0709D4FFF78BFDE37943F072
:100A50000203E371E37943F00103E37110BD00BFCA
:100A6000F811002010B4114B99689A6B83F82C0090
:100A7000022083F8300093F83C008A1A9A6220B969
:100A800042F205049C8783F83E0059B152B11A7BAB
:100A90005DF8044BD20914BF93F82E0093F82F0091
:100AA000FFF7C6BF5DF8044B704700BF6811002018
:100AB000F8B5204C064600F07F0004EB40041346D6
:100AC00004EBD6120F46D47F14F0010402F1180291
:100AD0004FEAD6114FEA400509D04FF0E023D3F892
:100AE000F00D10F0010001D000BE0020F8BDD67955
:100AF00046F00106D671104E6A18150106EB021277
:100B000077515460138138B90C4A22F81130012210
:100B1000FFF712FF0120E9E75589B3FBF5F4A2B214
:100B200005FB1434A4B20CB9002BF1D1013292B2FE
:100B3000EEE700BFF8110020541B0020121B00201C
:100B400010B5154CA078627888420BD08A421AD131
:100B5000124A0AB9012010BD1149DAB20020AFF3E0
:100B60000080F7E78242F3D0402204F14801FFF70A
:100B70009FFF0028EED14FF0E023D3F8F03DDA07D5
:100B800008D500BEE7E74FF0E023D3F8F03DDB07E0
:100B900000D500BE0020DEE7D400002000000000E9
:100BA000DC000020144B10B5144C6BB1607BAFF32C
:100BB000008048B942F2077384F83E00A387012001
:100BC000BDE81040FFF74EBFA268A36B0C4994F834
:100BD0002F00D21AB2F5805F28BF4FF4805292B234
:100BE000FFF766FF30B94FF0E023D3F8F03DDB07A5
:100BF00000D500BE10BD00BF00000000681100203D
:100C00006801002010F0800F4FF0000211460CBF69
:100C100080201046FFF74CBF10B40346064C006816
:100C20005968224603C20022C4E902225DF8044B3F
:100C30001878FFF7E7BF00BF780000202DE9F74FD5
:100C4000DFF8DC81019104469B460026019B9E4211
:100C500001DB01200FE06378052B04D1E37803F07A
:100C6000030393420AD04FF0E023D3F8F03DDB07B3
:100C700000D500BE002003B0BDE8F08FA77807F0D4
:100C80007F00052807D94FF0E023D3F8F03DDA07BD
:100C9000E9D500BEE7E7604BA1889B78022AC1F343
:100CA0000A010BD0032A6DD0012A13D1022B40F286
:100CB000FF3308BF4FF4806399421BE0022B18D129
:100CC000B1F5007F17D04FF0E023D3F8F03DD907FE
:100CD00000D500BEFFF7ADFC0028C4D0A378D90929
:100CE00016BF0C998BF800300B70237801361C442A
:100CF000ACE74029E7D817F07C0FC4D1430003EBE1
:100D0000D71308EB0313FD09598194F806C083F843
:100D10000CC001F103034FEA930E734638D14FF034
:100D2000A0475B00796A1733994206D23B4909888C
:100D30001944B1F5A07FA6DC7B62E778410101F19F
:100D4000A04107F0030C6746D1F8003B012F14BF08
:100D50004FF08057002743EA8C433B4308EB401792
:100D60007F893B4343F40043C1F8003B4FF0A0436D
:100D700000F11007D3F81C180120B8400843C3F84D
:100D80001C08ABE7022B0CBF4FF48063402393E7B2
:100D9000DFF888904FF0A047B9F800A07D6A0AEB11
:100DA0000E0CAC44BCF5A07F3FF66DAF53449BB234
:100DB0004FEA800CA9F800300CF1A04CC3F5A073E9
:100DC00043EA0E43CCF800314FEA401C94F803E0AC
:100DD0000CF1A04C0EF0030ADCF80099830543EAFD
:100DE0008A43BAF1010F41EA090143F40043D646B0
:100DF00043EA010314BF4FF0805E4FF0000E43EA58
:100E00000E03CCF80039D7F81C18012303FA00F0C0
:100E10000843C7F81C0861E7F81100206C000020A7
:100E2000541B0020F7B50E464979032903D000244E
:100E3000204603B0F0BD3479C4EBC4041234A4B22C
:100E4000A24207D24FF0E023D3F8F03DDA07EED507
:100E500000BEECE71A4D6A78002AF3D13378F01817
:100E60004778212FEED1C5F88800F75C6B1C009302
:100E70000A46AB1C31793844FFF7E0FE0028E1D088
:100E8000B379A878012B04BFF379EB7001232B71A0
:100E9000B3782B70D5F88830B3F80730EB80002892
:100EA000C6D008494022FFF703FE0028C0D14FF00A
:100EB000E023D3F8F03DDB07BAD500BEB8E700BFAA
:100EC000D40000201C01002037B54B79082B0846C0
:100ED00002D0002003B030BD8B79062BF9D1CB793D
:100EE000502BF6D1162A07D84FF0E023D3F8F03D67
:100EF000D907EED500BEECE7154C8B7884F82D3081
:100F00000D7804F12E0302220093114604F12F0301
:100F10002844FFF793FE38B94FF0E023D3F8F03DB3
:100F2000DA07D6D500BED5E7002394F82F0084F861
:100F300030301F222146FFF7BBFD30B94FF0E023D0
:100F4000D3F8F03DDB0700D500BE1720C2E700BF95
:100F50006811002013B5930800EB8303984209D170
:100F600012F0030204D00B68019301A9FFF74CF9BA
:100F700002B010BD0C6840F8044BEFE7930813B5BE
:100F800001EB8303044699420BD112F0030206D011
:100F9000002301A80193FFF737F9019B236002B0FA
:100FA00010BD51F8040B2060EDE7000013B5124BA3
:100FB0009889D98993F90040421A92B2402A28BFF1
:100FC0004022002C0EDA884212D099680B48019218
:100FD000FFF71AF90949019A802002B0BDE81040D4
:100FE000FFF766BD88424FF0000003D10021F4E70F
:100FF0008020FBE70149F0E778000020B8110020CD
:1010000070B50446164D00680B466168AB602E460D
:1010100003C60021E981E1888A4228BF0A46AA81E5
:10102000E18881B152B14BB94FF0E022D2F8F02DF6
:10103000D20701D4002070BD00BEFBE7FFF7B6FF6A
:1010400028B10120F7E72078FFF7DCFDF8E74FF043
:10105000E023D3F8F03DDB07ECD500BEEBE700BFA3
:101060007800002070B51446127802F01F05012D9B
:10107000084601D0002070BD434BA1881E78C9B23C
:101080008E42F7D112F060021ED0202AF2D162788F
:10109000013A0A2AEED801A151F822F00111000804
:1010A000471100085111000875100008751000085C
:1010B0007510000875100008751000081B11000855
:1010C000291100085B11000808B10120D3E76278FC
:1010D000062ACFD16288120A212A09D1D3F88810B2
:1010E0000029C7D020460A78BDE87040FFF788BFC6
:1010F000222ABFD1DA8825492046FFF781FFE4E79D
:101100000028E2D16288D2B2002A34D0E1880129D5
:1011100031D91A721E490122EEE70028D5D1E288A2
:10112000402AA7D81B49E7E70028CED16188090AE1
:101130005971194B1BB1AFF3008000289AD020469B
:10114000FFF76AFDC1E70028BFD114490122D3E7A8
:101150000028BAD112490122CEE70028EFD0022898
:10116000B3D16188C9B219710E4B002BADD00020EC
:10117000AFF30080A9E74FF0E023D3F8F03DDB07A1
:101180007FF578AF00BE75E7D4000020D23A0008A2
:10119000DC0000201C01002000000000D90000201D
:1011A000D80000200000000037B5154699B9137823
:1011B00003F07F02022A44D16C78012C41D16A8865
:1011C000002A3ED13A49A88891F83030042BC0B2A9
:1011D00003D1FFF72DFC012019E091F82E20904259
:1011E00017D1022BF7D18A6B8B689B1A8B62032372
:1011F00081F830300D222031FFF75AFC0028EAD167
:101200004FF0E023D3F8F03DDB074ED500BE03B02E
:1012100030BD91F82F40A042DDD1002BDBD1254A13
:1012200004F07F0302EB430303EBD4131833DA79A2
:10123000D107D0D4DB799A07CDD41D491F2220468F
:10124000DAE703F06003202B2FD16B78FE2B12D04E
:10125000FF2B2AD16B8843BBE9888AB22ABB144B87
:1012600028469987C3E90D2283F8302083F83E2071
:10127000FFF7D2FCAFE76B88BBB9EB88012B14D129
:101280008DF807300C4B1BB1AFF300808DF80700D1
:101290009DF807304BB1013B01220DF107012846B3
:1012A0008DF80730FFF7ACFE95E70020AFE700BFF1
:1012B00068110020F81100200000000070B50446FD
:1012C000164652B90378012B07D1214B0822C3F8E7
:1012D0008820BFF34F8FBFF36F8F658AA28AADB2AC
:1012E00092B29542A5EB020338BFE2899BB238BFA8
:1012F0009B1A228938BF9BB29A4225D1237B1BBB04
:10130000F6B916E09B1A9BB29342FBD262896068E1
:1013100002FB0300FEF778FF6B1C9BB29D4202D8D4
:10132000228A9A4202D2E28913449BB263826EB946
:1013300001262378012B02D1054B08229A602EB991
:10134000BDE87040FFF775B92B46DDE770BD00BF03
:1013500000E100E07FB504284FF00002CDE9002253
:101360001C4B02928DF8010011D0052819781CD071
:1013700003281FD062F300011970197862F341014C
:1013800019705A70197862F38201197006E01A78A0
:10139000D2070CD51A7842F004021A70012269466D
:1013A0000D4B1868FFF78AFF01E0C807EAD407B0C1
:1013B0005DF804FB4907FAD51978059262F38201BA
:1013C00019700523CDE9032203A98DF80D30012200
:1013D000E6E700BFF81100202412002070B5114E7E
:1013E000054600242046FFF72DF943682846984714
:1013F00033780134E4B20133A342F3DA0A4C2B22EE
:1014000000212046FEF79AFF1022FF21E01CFEF784
:1014100095FF4FF0FF33C4F81330C4F81730C4F809
:101420001B3070BD74000020F811002002488C228F
:101430000021FEF783BF00BFD40000200020FFF78B
:10144000F5BF0000024840220021FEF777BF00BF31
:1014500068110020024840220021FEF76FBF00BF44
:101460006811002008B5064B012205201A60FFF71D
:1014700011F9044A044B1188927819809A7008BDBA
:10148000640100209C3900086001002008B5074B6A
:10149000022201201A60FFF7FDF8054A054BB2F859
:1014A0000310527919809A7008BD00BF64010020B2
:1014B0009C3900086001002010B5194C227A32B125
:1014C000184B04221A60BDE81040FFF7FFB82368EC
:1014D0002BB3154B197861B11A70124B03221920E6
:1014E0001A60FFF7D7F8114A114B118892781980CA
:1014F0009A70D4E900329A4211D30A4B04221A603E
:10150000FFF7E4F8BFF34F8F0A490B4BCA6802F4A8
:10151000E0621343CB60BFF34F8F00BFFDE710BD08
:10152000E8120020640100201C000020A2390008FD
:101530006001002000ED00E00400FA051FB5002462
:1015400003921A46074BCDE901448DF804000720A9
:101550008DF805008DF80810186801A9FFF7AEFE98
:1015600004B010BD241200202DE9F04FBF4FFB8ABC
:10157000B9685BBA9BB285B0824613B1B1FBF3F395
:101580009BB2BE6BD7F81150B6FBF3F2A1EB060B82
:10159000BBF5805F28BF4FF4805B2DBA03FB12665A
:1015A0001544B3485A460021FEF7C8FEA6B9B14C0F
:1015B000A4F12003B345984621D8002E13DB97F8F9
:1015C0002E0040F04381014633463246504605B076
:1015D000BDE8F04FFFF7B2BF4FF0E023D3F8F03D86
:1015E000DB0700D500BE43F20333BB870120002395
:1015F00087F83E3005B0BDE8F04FFFF733BA184624
:101600004FF400720021FEF799FE0346EDB99A4AA5
:1016100002F1380E106851689C46ACE803000832AD
:1016200072456346F6D110689288CCF800005523C5
:10163000ACF8042084F8DE31AA2384F8DF310135C8
:1016400006F5007604F50074B2E7B5F5017F3DD8E4
:10165000681E8A4AB0F5817F28BF6FF4817EB2F898
:1016600046C028BF05EB0E0001020CF1010C01F58C
:10167000807E0A464FF00009944502F1010294BFB2
:10168000A8F80090A8F80020964508F10208F3D1C8
:1016900048B9F82204F8202CFF2204F81F2C4FF63A
:1016A000FF7224F81E2CDFF8D4C103204FF6FF7E12
:1016B000BCF81620914204D8521AFF2A98BF23F88A
:1016C00012E001380CF1180CF2D1B8E7B5F5027F41
:1016D00053D840F205229542B1D16949A4F11500D1
:1016E0000A78002A42D0013103F8012B8342F7D156
:1016F000282304F8153C634B1B681B0A5B0201930B
:1017000004F160005D4B039022464FF0000845F65F
:10171000FC29988A009002F10B0110469E46029126
:101720009EF800C0BCF1000F22D00EF1010E00F8AF
:1017300001CB02998842F3D145F26C51D8681182ED
:1017400051821183009982F80D80A2F80E90A2F8C0
:101750001480A2F81690518368B118690399D0617A
:1017600020328A4203F11803D3D168E72022BBE775
:101770004FF0200CDBE70198F0E7434A95423FF633
:101780005EAF3E486FF4027C05EB0C0200218646FA
:10179000A5F2072CB0F81480E04503D8B0F8168005
:1017A000E04505D20131032900F11800F2D10221F0
:1017B000182000FB01EE0229BEF81400A2EB000283
:1017C00002F1020014D0DEF81020B2EB402F4FEAF5
:1017D00040217FF634AF521ADEF80C00B2F5007FDC
:1017E000014428BF4FF400721846FEF70DFD26E7AE
:1017F000244B02F500221B6802F58172B3EB022F25
:101800004FEA02217FF61BAF204A44F8202C02F158
:10181000144202F52C1202F602321B0A44F81C2C68
:1018200044F8083C1A4AC4F8DC214FF400534FF442
:10183000807244F8183C174B44F80C0C44F8141C04
:1018400044F8102C44F8043C2046CEE70849B2B2D4
:10185000FFF72EF930B94FF0E023D3F8F03DDB0766
:1018600000D500BE05B0BDE8F08F00BF68110020B4
:101870006801002088010020103A000820000020A4
:101880003B3A0008D0000020080101005546320A0A
:10189000306FB10A575A75572DE9F04FA44C1D46C9
:1018A00094F83030012B97B00E4600F09C81032B4A
:1018B00000F0CE82002B35D194F82F208A4201D03F
:1018C000012011E01F2D03D121689A4A91420ED0C8
:1018D00094F82E00042384F83030FFF7A9F894F828
:1018E0002F00FFF7A5F8002017B0BDE8F08F924A4F
:1018F000A5682262626884F82C30C4E90923C4E92F
:101900000D53E37B012284F8302003F0FD02282AE6
:1019100039D1E28A52BA92B20DBB002A69D00220B4
:10192000FFF7A0F894F83030022BC9D194F82E00BC
:10193000824B00F07F0203EB420303EBD01318331A
:10194000DB799B07BCD4A368A26B934240F2A682CA
:10195000217BC90900F0A282FFF76AF8B0E7282BC3
:101960000BD1217BC909DAD0A2B19542D7D3282B5C
:1019700040F03482FFF7F8FDD4E72A2BF4D1217B25
:10198000C909F1D0CBE7B5B1227BD20913D1B5F5A6
:10199000805F01D90120C3E76949AAB23046FFF749
:1019A00087F80028BED14FF0E023D3F8F03DDC07E4
:1019B00099D500BE98E7252B07D8192B1DD8032BE6
:1019C00000F0EC80122B60D08BB194F83C10002911
:1019D000E0D11E2BAAB21FBF42F2050384F83E10CD
:1019E0004FF6FF71A3878A4228BF0A465ABB002DD3
:1019F000D0D1022384F8303094E7A3F11A020B2AE5
:101A0000E3D801A151F822F0591B0008EF19000892
:101A1000CB190008CB190008CB190008CB19000816
:101A2000CB190008CB190008CB1900085F1A000871
:101A3000CB190008391A0008414B42494FF40032D3
:101A4000C3E900120822A368002BA3D09A4228BF42
:101A50001A4662633A4994F82E0092B29FE7002238
:101A60000D92ADF83C2008228DF83720364A0E92B0
:101A700002220DAB8DF83C20ADF83E2093E8070024
:101A80002F4D85E807000C22DDE70023CDE90D335B
:101A900080238DF835304FF020350223102220218D
:101AA00011A88DF836308DF83730CDE90F55FEF797
:101AB00045FC264A159510685168127A06AB03C397
:101AC0001A70234B09AA03F10807164618685968CB
:101AD000154603C50833BB422A46F7D199881868D2
:101AE0009B792860A980AB7106A81A4B0593FEF775
:101AF00087FC06A902460FA8FEF786FB3046FEF7D4
:101B00007FFC3146024611A8FEF77EFB05A8FEF7D2
:101B100077FC0DAD024605A915A8FEF775FB0FCDA4
:101B2000074E0FC60FCD0FC62B68336024228AE7FD
:101B3000681100205553424355534253F811002079
:101B4000680100200001010800010109A539000811
:101B5000AE390008312E30009DF83620607B03231B
:101B60008DF83430002363F306028DF835308DF89C
:101B70003730A94B8DF8362073B1AFF300809DF854
:101B8000363080F0010060F3C7138DF83630A34B78
:101B90000D9A1A60042256E70120F0E794F83C50B1
:101BA00094F83E6094F83D70122200210DA8FEF7D3
:101BB000C5FBF0238DF8343005F00F050A238DF8AE
:101BC00036508DF841608DF83B308DF840700DAD8A
:101BD0000FCD924E0FC62B6833800023A38784F865
:101BE0003E3012222FE7E27B282A07D1A36B1D4447
:101BF000636BA5639D42BFF4FCAEBBE62A2A40F0AE
:101C0000F080DFF840B20026B542ABF120020CD8DC
:101C1000A36B002E1D44A56380F2DC8043F20333E6
:101C2000A387002384F83E30B4E65BF8200C7C499F
:101C3000884266D15BF81C1C7A4B994261D1DBF873
:101C4000DC01794988425CD1926822F4FF5222F08B
:101C50001E029204920CB2F5005F52D103F1394397
:101C60005BF8042C03F5C01303F510639A4248D1C6
:101C70005BF8143C01936D4A5BF8103C02931169C8
:101C8000002904DA6A496B4B5160536012696A4853
:101C9000DFF8B4C100214FF0006250F8047B019BD3
:101CA00090463A44934211D264484FF0010C425C92
:101CB00000F801C079B172B9104687420BD950F8CB
:101CC0000820013240F0F7800430F6E7013118298E
:101CD00001D06245E1D9DFF87481DFF85091DA462E
:101CE0000027029BBB4203DD98F81810012915D18B
:101CF0004E490A6942F000420A615BF8081C00295B
:101D000043D106F500760BF5007B7DE751F80820FE
:101D10000132E0D104318F42F8D8DCE701205AF8D3
:101D2000041B88F818004CF250300391FEF7A6FD12
:101D3000F0B9D9F8100020F44070C9F81000D9F8B3
:101D4000100040F40070C9F81000D9F8100040F0FD
:101D50000100C9F81000019B0399F9504CF2503072
:101D6000FEF78CFDD9F8101021F00101C9F8101010
:101D7000002188F818100028BAD14FF0FF30FEF784
:101D80007DFD0028B4D10437ABE72D4A10688142AD
:101D900007D044F26307B94200D808B14FF0FF31D1
:101DA00011605BF80C1C44F263008142A9D801F079
:101DB000070702EBD101012091F809C0B84010EAF1
:101DC0000C0FC7B29DD147EA0C004872516801312F
:101DD000516096E7636BAB427FF60BAEFEF7E2FE17
:101DE000A0E5A36B1D44237BA563DB0906D11E2A56
:101DF0001EBF42F20502A28784F83E30636B9D420B
:101E0000BFF4F7AD4FF0E023D3F8F03DDA077FF5EC
:101E100089AD00BE86E500BF00000000680100201B
:101E20005546320A57515D9E306FB10A003C024060
:101E300023016745AB89EFCD743C0008161B0020D9
:101E4000E812002088010020FFFF0708301B002057
:101E500094F82E308B427FF465AD0D2D7FF462AD8A
:101E6000E37B282B09D02A2B14D0214B53B1607B64
:101E700004F10F01AFF3008004E01E4B13B1607B4F
:101E8000AFF3008000231C4994F82F0084F8303011
:101E90001F2284E5607BFFF70FFBF3E79B1AA36229
:101EA000164903230D2284F83030FEF701FE002886
:101EB0007FF406AD77E5124A106920F44070106196
:101EC000106940F400701061106920F0F800106192
:101ED000106940EAC10141F002011161116941F448
:101EE000803111614FF0FF30FEF7C8FC002112E78E
:101EF0000000000000000000681100208811002090
:101F0000003C02402DE9804897B0234B0021089106
:101F10001A6C42F080521A641A6C02F080520892D5
:101F2000089A07911D490A6822F4404242F400428F
:101F30000A600A6802F440420792079A9A6802F01F
:101F40000C02042A07D09A6802F00C02082A2DD14C
:101F50005A6857022AD5104B1B680F4B9A6802F03B
:101F60000C02082A00F0AC810D4A002111660D4ACE
:101F7000106819688D0100F19D810B495960084B6B
:101F800001211966106804490B689C011CD4136870
:101F90001B1A022BF8D917E00038024000700040ED
:101FA00000004742501B0020105441071A68AD49F9
:101FB00042F480321A60AC4A10680B689E03CCD49D
:101FC00013681B1A642BF8D9A84B1A6812F0060F75
:101FD00000F07881A34CA36843F4E053A360A368A6
:101FE00043F46043A360A36823F0F003A360236875
:101FF000980100F170819B499D4C8B6803F00C03A4
:10200000082B00F0FA819B4B964923608B689A4A13
:102010009A4D964EC3F303132846D25C2368D340EF
:102020002360FEF753FB002306930A6B42F0010284
:102030000A630A6B02F001020692069A05930A6B84
:1020400042F002020A630A6B02F002020592059A4C
:1020500004930A6B42F004020A630A6B02F0040262
:102060000492049A03930B6B43F008030B630B6B0E
:1020700003F0080303934FF40052039B0123CDE9BF
:10208000112311A9139302231493FEF727FB4FF09A
:102090000053AB61754B5A69D10741BF784A9A60CA
:1020A00002F144329A60DA8A597D92B2CC2918BF83
:1020B0005B7D7369337D93071CD0724F3B7E012B90
:1020C00018D001234CF250303B76FEF7D7FB28B9ED
:1020D000F38A23F003031B041B0CF38200233B76DB
:1020E00040B9624A137D43F0020313754CF250303D
:1020F000FEF7C4FB5D4A644E536943F0010353612C
:102100003268624B9A420FD1002319203360FEF7E8
:10211000C1FA5F4A5F4B118892789A7019805E4BC2
:1021200004221A60FEF7D2FA5C4B5D4A19685B68BC
:102130000A40B2F1005F40F0798103F1774303F583
:102140007F03B3F5002F00F27181564B316899423D
:102150004FF0000340F065813360504B52481E68D9
:10216000D3F804C000214FF0010E0F274FF00208F2
:102170004FF003090EFA01F333F4005248D121F075
:10218000030202F1804202F59C3201F00304A40034
:10219000D2F808A007FA04FB0AEA0B0A08FA04F4CA
:1021A000A2456FEA03030FD104681C400460446831
:1021B0001C404460C4681C40C46084681C40846047
:1021C000946824EA0B0494602A684C0009FA04F429
:1021D00022EA04022A60CA08920002F1804202F553
:1021E000023201F0070AD2F820B04FEA8A0A07FA51
:1021F0000AFA2BEA0A0AC2F820A0EA6822EA0402D4
:10220000EA606A6813406B60AB6823EA0404AC6060
:1022100001311029AED1134B1A6B22F001021A635F
:102220001A6B22F002021A631A6B22F004021A637C
:102230001A6B22F008021A634FF0E02300221A61A1
:102240005A619A614FF0FF32C3F88021C3F88421AC
:10225000C3F88821C3F88C21104AC3F8082D86F3EF
:10226000088823E000380240501B0020003C024058
:10227000000000200024F400003A0008000802409A
:102280003B2A1908301B0020FCFF0020B40AE8F5A7
:10229000A23900086001002064010020000001084C
:1022A000030000FFEF6926F0003C014086F3098837
:1022B0006047FEE71168091A02297FF65AAE83E6E5
:1022C0005B6881E602221A701B6803F007039342E1
:1022D0003FF480AE8FE6A368A64A23F0030343F0E1
:1022E0000203A360116841F28830A36803F00C0375
:1022F000082B54D1A04B1A6802F00702022A53D8C7
:10230000A36823F4E05343F48053A360A36823F449
:102310006043A360A36803F00C03082B4DD0974BD8
:10232000974A98499268C2F30312885C964AC34060
:1023300013604FF47A72B3FBF2F3013BB3F1807F89
:10234000BFF459AE914C924821684FF0E022072526
:102350005361F02380F823300F294FF0000393617D
:1023600015613FF648AEC268C2F30222A81A0428DB
:1023700002F1040528BF0420062D98BF1A464FF02D
:10238000FF3303FA00F388BF033A21EA03039340C3
:102390001B017F4ADBB282F8233021602BE61368F1
:1023A0005B1A8342A1D926E602221A701B6803F049
:1023B000070393427FF41FAEA2E7626863686F4829
:1023C00013F4800315BF61686468C1F38811C4F316
:1023D000881418BF002302F03F0214BFA1FB0001C4
:1023E000A4FB0001FEF77AF8654B5B68C3F3014379
:1023F00001335B00B0FBF3F392E74B6848684B682E
:102400005E4AC3F3881300F03F00B2FBF0F253437F
:102410005B4A5268C2F3014201325200B3FBF2F34D
:10242000F2E55C4A914240F0D78033604FF4C053EC
:10243000594811934FF00308022500260A2711A9D5
:10244000CDE91256CDF850801597FEF747F94FF4B5
:10245000806C1223CDE911C30123CDE91338159700
:10246000FEF73CF9464B5A6B42F080025A630996DC
:102470005A6C42F480425A645B6C4FF0A04203F401
:1024800080430993099B936B43F400139363434B7D
:102490004FF400221A60424A4FF4801313642B4613
:1024A00011699382C1F30800490A002818BF01315D
:1024B0000B449BB20636591E122ED18202F118022D
:1024C000EED1384B1D78002D40D12B2229463648BD
:1024D000FDF734FF354A138955825B009BB2591EC4
:1024E0005B42D381324B95821A60324B118223B109
:1024F0003148AFF30080314B18602F4E002528463D
:10250000FEF7A0F80368984733780135EDB2013340
:10251000AB42F4DA4FF0A04329491A6C120C1204B2
:102520008A426DD027498A426AD001F580318A42B9
:1025300066D04FF0E023D3F8F03DD80700D500BEB9
:10254000214B08229A60174A012313701F4B022265
:1025500001201A60FEF79EF81D4A1E4BB2F80310C8
:10256000527919809A700F4B1B780093002B40F022
:102570001C81FEE7501B0020003C02400024F400B8
:1025800000380240003A00080000002068000020E7
:1025900000ED00E0EF6916F000000240D0000020DE
:1025A0002000002023120020F81100200400002049
:1025B00024120020000000007400002070000020A1
:1025C0000000544F0000315500E100E0640100209C
:1025D0009C39000860010020914C3260012023608A
:1025E000FEF758F84FF40053AB612368B3F5FA7F58
:1025F000FBD3FEF76BF84FF00053AB610023ABE564
:10260000D3F8042842F00202C3F80428DA6842F042
:102610004002DA609A6B42F480329A631A6942F09F
:1026200001021A614FF0A0421369D907FCD44FF0A0
:10263000A0421369002BFCDAD36823F4705343F4EF
:10264000A053D3602268774B9A425ED2764B9A426F
:102650005DD8764B9A425CD2754B9A425BD8A3F513
:10266000DB13A3F5BA539A4257D8A3F5B713A3F5D2
:1026700058739A4253D86F4B9A4252D26E4B9A4239
:1026800051D26E4B9A422CBF0E220F224FF0A04324
:10269000D96821F4705141EA8222DA60D3F8002827
:1026A00042F00302C3F80028D3F8002E22F00F02F4
:1026B000C3F8002EDA6842F00702DA60DA6822F026
:1026C000C04242F08042DA601A6822F0D00242F042
:1026D000C0021A60D3F8002842F00402C3F80028B0
:1026E0005A6959690A435A615A6859680A435A60D3
:1026F000534A9A619A6842F001029A60D3F804281A
:1027000022F00202C3F804281AE70622BEE70722D5
:10271000BCE70822BAE70922B8E70A22B6E70B228B
:10272000B4E70C22B2E70D22B0E7091A89B2884259
:10273000FBD9628963680AA802FB0131FDF764FDD9
:10274000009AA38A99B212FA83F39BB2994202D8F3
:10275000218A994202D2E1890B449BB2A382237859
:10276000012B02D1374B08219960002A3FF4FBAEC0
:102770009DF82930013B072B00F25483DFE813F06A
:1027800008004400EB03C103D0036A003503ED03E6
:102790009DF82800FEF722FE14222B480021FDF7A9
:1027A000CDFD2A4B9DF82C209A70294B1C6823786C
:1027B000012B07D1234B0822C3F88820BFF34F8F8A
:1027C000BFF36F8F628AA18A92B289B28A4238BF00
:1027D000E089A2EB01039BB238BF1B1A208938BFE6
:1027E0009BB298420CD2824204D3258A131A9BB220
:1027F0009D4203D2E3890344D21A93B2A3820346D3
:10280000002B94D11A469CE79DF82800FEF7E6FDC0
:10281000142200210C48FDF791FDFEF737FEC4E7B6
:10282000B41100200048E801DF9DA30100366E01CD
:102830003FA44C01807306010024F400C0E1E400D1
:102840001638008000E100E078000020F811002038
:1028500024120020BD4C9DF82C802378DFF80C93C7
:102860009DF828A043F001032370E37F6FF300037A
:10287000E377E37F6FF38203E37794F820306FF31D
:10288000000384F8203094F8203008F060026FF3E1
:1028900082030021602A84F82030C9F8101012D178
:1028A0004FF0E023D3F8F03DDC0700D500BE4FF039
:1028B000A0428020D2F8003B43F40013C2F8003B52
:1028C000FDF74FFE71E7402A0CD1A14B002BEED053
:1028D0000BAA5046C9F81030AFF3008000287FF4EF
:1028E00064AFE4E708F01F08B8F1010F00F0E981D8
:1028F000B8F1020F00F00C82B8F1000FD0D1202AFD
:102900000FD19DF830300F2BD1D82344D878FDF764
:1029100099FE01460028CAD00BAA5046FDF7B2FE28
:10292000DCE7002ABCD19DF82D20092AB8D801A1E6
:1029300051F822F0AD2C00089B2C0008A1280008BB
:10294000872C0008A12800085D290008EF2A00084C
:10295000A1280008A3290008B5290008DDE90B011A
:102960000023C9E90001C9E902334FF0A0419DF8F5
:102970002E00D1F8002822F4FE6242EA0012C1F8CB
:102980000028744AC2E904331383734A5380012236
:1029900018461146FDF7D0FF237843F00203237059
:1029A00003E763788DF84430012211A90BA8FEF7E4
:1029B00027FBFAE69DF82E6063789E427FD063780D
:1029C0002BB34FF0A04263494FF00113C2F81C38FB
:1029D0000023C2F8203B4B85C2F820394B87C2F850
:1029E000403BA1F84A30C2F84039A1F85A30C2F849
:1029F000603BA1F86A30C2F86039A1F87A30574BD1
:102A0000A578102250461A80FEF7E8FCA570002E2B
:102A100055D02378DFF8589123F0300343F01003AA
:102A200023704FF0010899F80130042B13D04FF0B8
:102A3000E023D3F8F03DDB077FF532AF00BE2FE790
:102A400043780B2B03BF037890F80380C0184FF036
:102A500001088146E7E7424BA3EB090B1FFA8BFB0A
:102A60000027404B1B78FDB20133AB42DFDB284629
:102A7000FDF7E8FD5A4683684946504698470828BE
:102A800033D9834531D3002209E099F802703B44E1
:102A900054FA83F30132DF78FF2FC8D1DD70D3B24F
:102AA0004345F2D3484448450ED82E4B1B7801339A
:102AB0009D42BCDC2A4B9842C2D3FEF7D3FC667021
:102AC0000BA8FEF7A9F870E699F80130052B08D19C
:102AD00099F8022002F07F0304EB430303EBD213C7
:102AE000DD7499F800309944DDE70137B9E7BDF8A6
:102AF0002E00030A5A1EC0B20E2A3FF6D8AE01A11C
:102B000051F822F0412B00088D2B0008AB2B000858
:102B1000AF280008AF2800086F2C00088D2B000894
:102B2000AF280008AF280008AF280008AF28000829
:102B3000AF280008AF280008AF280008752B000850
:102B4000094912220BA8FEF75BFAC7E6F81100202C
:102B500000000000541B0020121B00206C0000200D
:102B6000C03A000874000020C03A00087800002035
:102B7000893A0008B74B002B3FF499AEAFF30080C1
:102B8000014600283FF48CAE4A88DBE7022B01D1D6
:102B9000B149F9E7B14B002B3FF489AEAFF30080A8
:102BA00000283FF47DAE0146EEE7C8B1032824D0EB
:102BB00006283FF67CAEAA4B53F820402046FDF78E
:102BC0001FFCC2B21F2A28BF1F22A64B2046A118F5
:102BD000884203F1020308D010F8014B1C80F7E78C
:102BE000A04B40F209425A8001220132D2B29D49E3
:102BF000520042F440730B80A4E79B4B994CD3F8EE
:102C0000102A0D92D3F8142A0E92D3F8183A0F9383
:102C10000DAF0026954B11AD03F1100C2A46186834
:102C20005968AE46AEE80300083363457546F6D1F1
:102C300017F801EB16A90EF00F030B4413F8143C20
:102C4000A3808A4B18685968154603C50833634545
:102C50002A46F7D116AB03EB1E13013613F8143CCA
:102C600063800C2E04F10404D4D11822BDE7804BFC
:102C7000002B3FF41CAEAFF30080014600283FF468
:102C800016AE02785EE7BDF82E30012B7FF40FAE52
:102C9000237843F00803237012E7BDF82E30012B90
:102CA0007FF405AE23786FF3C303F4E72378C3F30F
:102CB00040129B0803F002031343ADF84430022294
:102CC00073E69DF830300F2B3FF6F1AD2344D878F2
:102CD000FDF7B8FC014600283FF4E9AD0BAA5046C9
:102CE000FDF7D0FC00287FF460AD9DF82C3013F088
:102CF00060037FF4DCAD9DF82D20A2F10A010129CB
:102D00003FF6D5AD0A2AC9F810307FF4D9AE49E6AE
:102D10009DF8301001F07F05052D3FF6C1AD04EBA5
:102D2000450707EBD117CB09F87C0193FDF78AFC27
:102D30006E00019B83462AB100283FF4B8AD0BAA70
:102D40000146EAE59DF82D2002F0FD00012806D09D
:102D5000002A7FF4A5ADFB7FC3F34003ADE7BDF8C8
:102D60002E00F8B9012A3CD1FA7F97071AD52DB267
:102D70006D0105F1A0453BB3D5F8002922F40012FE
:102D8000C5F80029D5F8002942F08052C5F800297D
:102D900026443344DA7F6FF34102DA77DA7F6FF348
:102DA0000002DA77BBF1000F3FF4FFAC0BAA5946E3
:102DB0005046FDF767FC0023C9F8103094F8203026
:102DC000DD073FF5F2AC7BE6D5F8002B22F40012CC
:102DD000C5F8002BD5F8002B42F08052C5F8002B27
:102DE000D6E70846FDF724FEDCE79DF82C10214BC2
:102DF00001F07F0403EB440303EBD113CD09D87F2B
:102E00006FF30000D877D87F6FF38200D877002C5B
:102E100061D1194C9DF8286023780C9FB5EBD31F26
:102E20002ED047B14FF0E023D3F8F03DDB077FF51C
:102E3000BCAC00BEB9E4114B1BB121463046AFF328
:102E400000802369002B3FF4B0AC0B4A02213046CE
:102E50009847AAE400000000803A00080000000043
:102E6000D43C00088C0000200070FF1FBD39000812
:102E700000000000F8110020780000200000000091
:102E800094F90030002B07DBA06800283FF48DACDC
:102E900035493A46FDF7B8F9A268E3893A443B441C
:102EA000A260E2889BB29A42E38101D03F2F0FD803
:102EB000236933B92078FDF7A5FE00287FF475ACAF
:102EC000B0E72A4A0121304698470028F2D1EEE4C3
:102ED000FEF76CF8F1E7D87CFDF7B4FB48B94FF08A
:102EE000E023D3F8F03DD8077FF53DAB00BEFFF7F8
:102EF0003ABB04690C9B9DF82D209DF82800A04743
:102F000053E41B4B1A78D1077FF54FAC194A002ABE
:102F10003FF44BAC1878C0F3C000AFF3008044E43A
:102F2000134B1B78DA077FF540AC134B002B3FF4B3
:102F30003CACAFF3008038E4FDF784FB436913B188
:102F40009DF82800984701340C4B1B78E0B2013300
:102F50008342F1DA29E40024F6E70B9B002B3FF4CF
:102F600024AC0C98984720E4B81100207800002089
:102F7000F811002000000000000000007400002094
:102F800070470000134A136801331360124B1B682B
:102F9000022B0DD8E3B113681268DBB2D20544BF2F
:102FA000DB43DBB20D4A33B14FF4005393617047FA
:102FB000032B03D070474FF00053F7E7136813F06B
:102FC000010F064B14BF4FF400524FF000529A61AC
:102FD000704700BFB41100206401002000080240C7
:102FE0002DE9F04F4FF0A0448BB06269A36902EA6B
:102FF000030919F4805F42D04FF48053636180224B
:10300000A6480021FDF79AF9A54A00231370D4F8C9
:10301000002822F4FE62C4F800285A0102F1A042FE
:103020000133D2F8001B042B41F00061C2F8001BF1
:10303000F3D14FF0A0434FF00112C3F81C2809222E
:10304000C3F81428C3F8102837225A62954A102171
:103050001180954A9A62D3F8002922F00302C3F83E
:1030600000298E4A402151815183D3F8102B42F020
:10307000C042C3F8102B9A6942F440229A6119F4B5
:10308000005F1CD04FF0A0434FF400525A61D3F8B8
:10309000082812F0060FC2F3410360D09A1E534273
:1030A00053410022CDE907228DF820307F4B099251
:1030B0001868012207A98DF81D20FEF7FFF819F402
:1030C000006F07D04FF0A0434FF400625A61042014
:1030D000FEF740F9B9F1000F07DA4FF0A0434FF0C7
:1030E00000425A610520FEF735F919F0040F08D0A7
:1030F0004FF0A04465686B0702D50220FEF72AF95D
:10310000656019F0080F0AD04FF0A04308225A60FA
:103110009A6922F008029A610320FEF71BF919F060
:10312000100F48D04FF0A042DFF870A1936923F050
:10313000100393614FF0A0431B6A03F00F06C3F323
:103140000A18C3F34343013B052B00F29B81DFE8E0
:1031500013F00E00B5007C019A00990108000223CB
:103160009FE7534A534B1168196012685A604FF039
:10317000A040446814F01004DCD149490B78A3B195
:10318000464A538D5589AB4238BF2B46B2F84A5058
:10319000B2F86A20AB4238BF2B46934238BF134681
:1031A0009B085B00173343620C704FF0A042936999
:1031B00043F01003936119F4002F40F06C8119F46F
:1031C000802F5DD0DFF8D4B04FF000094FF0A0435E
:1031D0005FFA89F1D3F8183823FA09F3DF0748D5E5
:1031E0004FEA491808F1A04808F51068D8F80830E7
:1031F000DE070FD50122C8F80820B9F1000F40F012
:103200009C812D4B5B88002B00F09781114648462E
:10321000FDF792FBD8F808301D062AD54FF0A043E1
:103220000122D3F8343802FA09F21A42029220D06D
:10323000D8F810304FEA093AC3F3C9430AF1A04A5B
:1032400003930AF5805A00230193BDF80430039AD2
:103250009A4200F27B81D8F81030C3F3120343B9CD
:103260004FF0A0420299D2F8343823EA0103C2F8A1
:10327000343809F10109B9F1040F0BF1200BA5D184
:103280000BB0BDE8F08F760106F1A046D6F8103BF2
:1032900043F0C043C6F8103B69E700BF541B002051
:1032A000A81100206C000020300110002412002022
:1032B00000100050AC110020121B00200AEB461336
:1032C00071015F68002F00F09D80B8F1000F3AD0C7
:1032D000FB89388ADFF834B3B988FA889BB2009347
:1032E0003B7A80B2002B47D1009C009B8442A3EB29
:1032F000000338BF78899BB23CBF1B1A9BB2CB1A24
:103300009BB2434528BF43460193009B8B423ED26C
:10331000019C3868CD1AADB2AC4202FB030039D82B
:1033200014FB02F292B25946FDF714FEDDE90023C8
:1033300013449BB29A4202D8BA899A4202D27A893D
:1033400013449BB2FB810AEB46127301518941453C
:103350007FF60DAF03F1A043D3F8101B13895B1A5E
:103360009BB21381002E7FF402AFA74A118816800A
:103370005B1AAAF80830FAE6884523BFA8EB0103D8
:10338000CDE9000102FB03BBCDF80480BDE75B1A69
:103390009BB2BBE7019C039015FB02F5ADB2641A2A
:1033A0001C4425F003039BB214FB02F294B259466D
:1033B0001A460493FDF7CEFD15F0030520D0C5F1A4
:1033C000040292B2A242134628BF23460293E41A93
:1033D000DDE90303DBF80020079207A92A46184419
:1033E000FCF712FF3B68029A07A929441846FCF72C
:1033F0000BFF029AA4B21044002C97D0224692E709
:103400003868F9E75AF8012080484FEA980302EB40
:1034100083039A4215D118F003005FFA88F40AD0AA
:103420007A4A12681A70A70744BF140A5C7003280E
:1034300004BF120C9A705AF8013043444AF8013024
:1034400081E7046842F8044BE3E7002E7FF48FAE77
:10345000B8F1000F7FF48BAE4FF0A0436C491A6CAB
:103460008A427FF684AED3F8082B48F220010A4244
:103470003FF47DAE12F0200F0CBF01222122C3F8D1
:10348000082B74E64FF0E023D3F8F03DDE077FF51C
:103490006EAE00BE6BE65F4EDFF86C815E4FDFF80C
:1034A00070A100244FF0A04204F11001D2F81838A6
:1034B000CB40DD075FFA84FB30D56501AB18D3F84C
:1034C000083B180719D519042ED5126C48F20803C9
:1034D000524598BF082305F1A042C2F8083B97E87F
:1034E00003004FF4C06307930AAB03E903004B4B9F
:1034F0000122186807A9FDF7E1FE05F1A045D5F8FE
:10350000083BDB070AD50122C5F8082B74B9B8F8C7
:1035100000305BB121462046FDF70EFA0134042C41
:1035200006F12006BED14AE60823D4E732890123FA
:1035300059460020FEF702F8F0E7BBF818200123F7
:1035400041F080010020FDF7F9FF63E6D8F8103064
:10355000BBF81A2032499BB29A4228BF1A46D8F8C3
:10356000183001EA83039A423FF675AEDBF8145037
:10357000002D00F09180E9892B8A89B29BB2994293
:1035800038BF6889A1EB0307BFB238BF3F1AA888CC
:1035900038BFBFB2B8420ED2814204D3AC890B1AF5
:1035A0009BB29C4203D26B890344C91A8BB22B8213
:1035B0002B8A07469BB297B1974228BF174698427D
:1035C0001ED9C61AEA882968B6B2B74202FB0311AF
:1035D00028D817FB02F292B25046FDF7CFFC2B8A97
:1035E00017FA83F79AB2BFB2BA4202D8AB89BB428C
:1035F00002D26B891F44BFB22F82019B013323E6A5
:103600001B1A9BB2DBE700BF121B0020001000500A
:103610000930544F541B0020AC110020241200200C
:10362000FCFF030016FB02F6B6B23C1A1C4426F05F
:1036300003039BB214FB02F294B250461A46CDE942
:103640000413FDF79BFC16F0030623D0C6F1040219
:1036500092B2A242134628BF23460093E41A0023E5
:103660000793DDE904133246194407A8FCF7CCFDA3
:1036700007AB2968009A04919819FCF7C5FD009BD7
:1036800004991944079BCAF80030A4B2002CA6D0B4
:103690002246A1E72968F9E7DBF81030910803EB2F
:1036A0008101994214D112F00300D4B20AD0A407C8
:1036B000197848BF1988032804BF9B7841EA034161
:1036C000CAF80010DBF810301344CBF8103094E740
:1036D00053F8040BCAF80000E3E700BF034AD2F82E
:1036E000883043F47003C2F88830704700ED00E082
:1036F0002DE9F04F099E88468E4615460446194628
:10370000002B40F0C7804245B2FA82F746D94FB14C
:10371000C7F1200C08FA07F320FA0CFCBD404CEA74
:10372000030EBC404FEA15481FFA85FCBEFBF8F9B2
:10373000220C08FB19E309FB0CFA42EA03439A4501
:1037400028D9EB1809F1FF3004D29A4502D9A9F122
:1037500002002B44A3EB0A03A4B2B3FBF8F208FB6C
:10376000123302FB0CFC44EA0344A44514D92C197F
:1037700002F1FF3303D2A44501D9931E2C44A4EBDC
:103780000C0443EA00401EB1FC4000233460736027
:10379000BDE8F08F4846DDE71346F0E702B9FFDEEB
:1037A0008FBBA8EB020301214FEA154EAAB2B3FB6F
:1037B000FEFC200C0EFB1C330CFB02F840EA03431A
:1037C000984563D9EB180CF1FF3004D2984502D923
:1037D000ACF102002B44A3EB0803A4B2B3FBFEFC44
:1037E0000EFB1C330CFB02F244EA0344A2424FD905
:1037F0002C190CF1FF3304D2A24202D9ACF102031E
:103800002C44A41ABDE7C7F1200C28FA0CF908FAD9
:1038100007F320FA0CFCBD404CEA03024FEA154EB8
:10382000ABB2B9FBFEFC110C0EFB1C900CFB03F8B9
:1038300041EA0040804504FA07F423D928180CF126
:10384000FF3104D2804502D9ACF102012844A0EB3B
:10385000080092B2B0FBFEFC0EFB1C000CFB03F850
:1038600042EA004398450FD9EB180CF1FF3204D21D
:10387000984502D9ACF102022B44A3EB080342EABB
:10388000014191E76146E2E76246F6E76046A2E75A
:103890006346B6E7434505D90EB1C6E900080021E5
:1038A000084675E7B3FA83FCBCF1000F10D143451D
:1038B00001D382420AD8841A68EB030301209E4692
:1038C000002E68D0C6E9004E002161E76046F7E7A8
:1038D000CCF1200E03FA0CF322FA0EF41C4320FA6A
:1038E0000EF108FA0CF328FA0EFB19434FEA1449BB
:1038F00002FA0CF5BBFBF9F8A3B209FB18BB0A0CE2
:1039000008FB03FA42EA0B42924500FA0CF73ED953
:10391000A21808F1FF3004D2924502D9A8F10200A2
:103920002244A2EB0A0289B2B2FBF9F809FB182281
:1039300008FB03F341EA024293422AD9A21808F194
:10394000FF3104D2934202D9A8F10201224441EA94
:103950000040A0FB0598D21A42454B46414602D38F
:1039600006D14F4504D2B9EB050368EB04010138D9
:103970008EB1FC1A62EB010707FA0EFE24FA0CF373
:103980004EEA030327FA0CF7C6E900379CE74046E6
:0C399000C7E74146DBE73146FAE60000DD
:10399C0000FF00FF0000CC6600416461667275692F
:1039AC00740055463220426F6F746C6F616465729F
:1039BC00003031323334353637383941424344459F
:1039CC00460053544D33320053544D333220554638
:1039DC003220424F4F544C4F4144455200554632D1
:1039EC000048463220484944004846322057656218
:1039FC0055534200000000000000000001020304C7
:103A0C0006070809EB3C90554632205546322000FB
:103A1C00020101000240000000F802010100010057
:103A2C0000000000090101008000294200420053FF
:103A3C00544D3332463430314345464154313620AF
:103A4C00202009044514000855140008C90E00086C
:103A5C00A911000899180008000000003D14000886
:103A6C002D140008250E000865100008410B0008F5
:103A7C000000000009024000020100A0320904000D
:103A8C0000020806500407050102400000070581EA
:103A9C000240000009040100020300000509211185
:103AAC000100012222000705020340000A070582DB
:103ABC000340000A12010002000000409A235D003E
:103ACC000001010203010600FF0901A10109021511
:103ADC000026FF007508954081020903150026FF9A
:103AEC0000750895409102C03C21646F6374797035
:103AFC00652068746D6C3E0A3C68746D6C3E3C626B
:103B0C006F64793E3C7363726970743E0A6C6F63C8
:103B1C006174696F6E2E7265706C616365282268C2
:103B2C00747470733A2F2F7777772E73742E636FAC
:103B3C006D2F656E2F6D6963726F636F6E74726F2C
:103B4C006C6C6572732D6D6963726F70726F6365E7
:103B5C0073736F72732F73746D33326634303163D9
:103B6C00652E68746D6C22293B0A3C2F7363726955
:103B7C0070743E3C2F626F64793E3C2F68746D6CA0
:103B8C003E0A0054696E7955463220426F6F746C50
:103B9C006F6164657220302E31312E302D31312D14
:103BAC0067333837623234352D6469727479202D5D
:103BBC002073742F636D7369735F646576696365D5
:103BCC005F6634202876322E362E38292073742FD7
:103BDC0073746D3332663478785F68616C5F6472CD
:103BEC0069766572202876312E382E302D382D6767
:103BFC0031643939353634292074696E79757362BC
:103C0C002028302E31322E302D3230332D67613456
:103C1C0063666431633639290D0A4D6F64656C3AFD
:103C2C002053544D33322053544D333220554632A9
:103C3C0020424F4F544C4F414445520D0A426F6144
:103C4C0072642D49443A2053544D3332463430314A
:103C5C0043450D0A446174653A204E6F762031322B
:103C6C0020323032320D0A000040000000400000CB
:103C7C0000400000004000000000010000000200B5
:103C8C000000020000000200000002000000020020
:103C9C000000020000000200004000000040000094
:103CAC000040000000400000000001000000020085
:103CBC0000000200000002000000020000000200F0
:103CCC0000000200000002004E3A0008CE39000845
:103CDC00D4390008001B0020E9390008ED39000830
:043CEC00F53900089E
:083CF00000FAFF7F0100000053
:103CF8000024F400010000002812002010000C002D
:103D08000000E0FF1F0000000000000001000000AC
:103D1800494E464F5F554632545854008F3B000871
:103D2800E400000000000000494E444558202020CF
:103D380048544D00F43A00089A00000000000000C2
:103D480043555252454E542055463200000000005B
:0C3D58000000000000000000100000004F
:0400000508000511D9
:00000001FF
