:020000040800F2
:10000000FCFF0020110500086105000861050008DB
:100010006105000861050008610500080000000096
:100020000000000000000000000000006105000862
:10003000610500080000000061050008952F000818
:1000400061050008610500086105000861050008F8
:1000500061050008610500086105000861050008E8
:1000600061050008610500086105000861050008D8
:1000700061050008610500086105000861050008C8
:100080006105000861050008610500080000000026
:1000900000000000000000000000000061050008F2
:1000A0006105000861050008610500086105000898
:1000B0006105000861050008610500086105000888
:1000C0006105000861050008610500086105000878
:1000D00061050008610500086105000800000000D6
:1000E00061050008610500086105000800000000C6
:1000F0000000000000000000000000006105000892
:1001000000000000610500086105000861050008A5
:1001100000000000000000000000000000000000DF
:100120006105000861050008610500086105000817
:100130006105000800000000000000000000000051
:10014000000000000000000000000000F12F000887
:1001500061050008610500086105000861050008E7
:1001600061050008610500080000000000000000B3
:10017000000000000000000000000000000000007F
:100180000000000061050008000000000000000001
:0401900061050008FD
:1001C00070B50D4E0D4D761BB61006D000240134CF
:1001D00055F8043B9847A642F9D1094E094D761BC4
:1001E00002F0D6FEB61006D00024013455F8043BC8
:1001F0009847A642F9D170BD083D0008083D0008A7
:10020000083D0008083D0008844641EA000313F059
:1002100003036DD1403A41D351F8043B40F8043B0D
:1002200051F8043B40F8043B51F8043B40F8043BD0
:1002300051F8043B40F8043B51F8043B40F8043BC0
:1002400051F8043B40F8043B51F8043B40F8043BB0
:1002500051F8043B40F8043B51F8043B40F8043BA0
:1002600051F8043B40F8043B51F8043B40F8043B90
:1002700051F8043B40F8043B51F8043B40F8043B80
:1002800051F8043B40F8043B51F8043B40F8043B70
:1002900051F8043B40F8043B403ABDD2303211D310
:1002A00051F8043B40F8043B51F8043B40F8043B50
:1002B00051F8043B40F8043B51F8043B40F8043B40
:1002C000103AEDD20C3205D351F8043B40F8043B10
:1002D000043AF9D2043208D0D2071CBF11F8013B0E
:1002E00000F8013B01D30B8803806046704700BFD4
:1002F000082A13D38B078DD010F003038AD0C3F1E3
:100300000403D21ADB071CBF11F8013B00F8013BC4
:1003100080D331F8023B20F8023B7BE7043AD9D383
:10032000013A11F8013B00F8013BF9D20B78037058
:100330004B7843708B78837060467047F0B48607C3
:1003400046D0541E002A3CD0CAB2034602E014F143
:10035000FF3436D303F8012B9D07F8D1032C29D99C
:10036000CDB245EA05250F2C45EA054533D9A4F160
:100370001006360903F1200707EB061703F11002F8
:1003800042E9045542E902551032BA42F8D1721CD2
:1003900014F00C0F03EB021204F00F0613D0331FFE
:1003A00023F003030433134442F8045B9342FBD16C
:1003B00006F003042CB1C9B21C4403F8011B9C4293
:1003C000FBD1F0BC704734461346002CF3D1F8E75C
:1003D00014460346C2E71A462646E0E7000000003E
:1003E000000000000000000000000000000000000D
:1003F00000000000000000000000000000000000FD
:1004000090F800F06DE9024520F007016FF0000C54
:1004100010F0070491F820F040F049804FF00004FC
:100420006FF00700D1E9002391F840F000F10800D7
:1004300082FA4CF2A4FA8CF283FA4CF3A2FA8CF30F
:100440004BBBD1E9022382FA4CF200F10800A4FA76
:100450008CF283FA4CF3A2FA8CF3E3B9D1E90423CA
:1004600082FA4CF200F10800A4FA8CF283FA4CF301
:10047000A2FA8CF37BB9D1E9062301F1200182FABB
:100480004CF200F10800A4FA8CF283FA4CF3A2FAC1
:100490008CF3002BC6D0002A04BF04301A4612BACF
:1004A000B2FA82F2FDE8024500EBD2007047D1E9D2
:1004B000002304F00305C4F100004FEAC50514F061
:1004C000040F91F840F00CFA05F562EA05021CBF32
:1004D00063EA050362464FF00004A9E753B94AB93D
:1004E000002908BF00281CBF4FF0FF314FF0FF303C
:1004F00000F00CB8ADF1080C6DE904CE03F000F982
:10050000DDF804E0DDE9022304B07047704700BF66
:10051000DFF834D00D480E490E4A002302E0D458CB
:10052000C4500433C4188C42F9D30B4A0B4C00233B
:1005300001E013600432A242FBD303F0D7F8FFF7C7
:100540003FFE01F0DDFC7047FCFF002000000020B2
:100550006C000020083D00086C000020D41B002027
:10056000FEE700F07F014B01C20903F1A04331D047
:1005700003F5106019B1D3F80029002A13DBD3F872
:10058000002942F00262C3F800294FF0A0431A6923
:1005900042EA811119611A6942F020021A611A694E
:1005A0009006FCD47047D3F8002942F00062C3F8EB
:1005B000002982685206FCD5D3F8002942F0804217
:1005C00042F40012C3F8002983689B07FCD502237C
:1005D0008360DAE703F5306019B1D3F8002B002A05
:1005E00006DBD3F8002B42F40012C3F8002B70474F
:1005F0004FF0A042D2F8041841F40071C2F8041878
:1006000051690906FCD5D3F8002B42F0804242F430
:100610000012C3F8002B83689B07FCD502234FF020
:10062000A0428360D2F8043843F48063C2F80438EF
:1006300070474FF0E023D3F8F03DDB0700D500BE54
:10064000002070470B4B63B10B4B1B78834206D9DC
:100650000A4B1B6800EB400003EBC0007047C01A58
:10066000C0B2012803D8064B00EB4000F4E700209D
:10067000704700BF000000007400002070000020E0
:10068000603A0008CB6802490B610021184700BF9F
:10069000780000200B4B4FF47A721B68B3FBF2F327
:1006A00058430138B0F1807F0AD24FF0E023064A68
:1006B0005861F02182F8231000229A6107221A6102
:1006C000704700BF0000002000ED00E04FF0E02286
:1006D000136923F001031361704700002DE9F74F00
:1006E000DFF890C1614ADFF8908100234FF0010EDE
:1006F0000D680EFA03F404EA0506AC4340F0A78047
:100700004D6805F003055F000324013DBC40012D49
:100710006FEA040411D8856805EA0409CD68BD4074
:1007200045EA09058560456825EA06094D68C5F36F
:1007300000159D4045EA090545604D6805F0030533
:10074000032D23D0C56805EA04098D68BD4045EA3C
:100750000905C5604D6805F00305022D16D14FEA65
:10076000D30A00EB8A0A03F0070BDAF820504FEAAD
:100770008B0B4FF00F0909FA0BF925EA09090D69EE
:1007800005FA0BF545EA0905CAF8205005682C4022
:100790004D6805F00305BD402C4304604C6814F41B
:1007A000403F54D04FF0000BCDF804B0DCF844507B
:1007B0002F4C45F48045CCF84450DCF8445005F407
:1007C00080450195019D23F0030505F1804505F560
:1007D0009C3503F00309D5F808A04FEA89090F27D3
:1007E00007FA09F7A0422AEA070737D004F5806420
:1007F000A04235D004F58064A04233D0404533D0C8
:1008000004F50064A0420CBF0424072404FA09F490
:100810003C43AC604C689768F543E40254BF2F40FA
:10082000374397604C68D768A40254BF2F403743C2
:10083000D7604C685768A40354BF2F4037435760B4
:100840004C681768E40354BF2F40374317600133E7
:10085000102B7FF44DAF03B0BDE8F08F5C46D5E7B9
:100860000124D3E70224D1E70324CFE7003C014071
:100870000000024000380240000C024030B52B4B13
:100880002B4C0022DA6125682A4AD168C90344D476
:10089000D168C80744BF0121D160D06810F4F97055
:1008A00042D0D168C90605D5D96941F01001D96196
:1008B0001021D1601F4AD1688D0605D5D96941F054
:1008C0000801D9612021D160D1684C0605D5D969CC
:1008D00041F00401D9614021D160164AD16808066F
:1008E00005D5D96941F00201D9618021D160D16873
:1008F000C90506D5D96941F00101D9614FF480716C
:10090000D1600C49CA68920705D5DA6942F0200225
:10091000DA610223CB60012006E0411CB5D02168DA
:10092000491B8142B1D9032030BD00BF301B0020DC
:10093000501B0020003C024030B560B93A4B3B4DA3
:1009400003EB011335F811405B89A34228BF23460E
:10095000E41A25F81140450101294FEAC24405F186
:10096000A04231D11C43C2F81049D2F8001941F01D
:100970000441C2F80019D2F8001901F44021B1F580
:10098000802F15D1284901EB4011097F01290FD192
:100990004FF0A041D1F80848D2F8001914F4807F34
:1009A00014BF4FF080544FF000542143C2F8001997
:1009B0004BB14FF0A0420123D2F8341803FA00F0F3
:1009C0000843C2F8340830BDD2F8101B01F0604172
:1009D000C2F8101BD2F8101B0C432343C2F8103B83
:1009E000D2F8003B43F00443C2F8003BD2F8003B8E
:1009F00003F44023B3F5802FE5D10B4B03EB4010FC
:100A0000037B012BDFD14FF0A043D3F80818D2F8B5
:100A1000003B11F4807F14BF4FF080514FF0005124
:100A20000B43C2F8003BCEE7541B0020121B0020F2
:100A300010B50B4B00F07F0203EB420303EBD01425
:100A40001834E3799B0709D4FFF78BFDE37943F072
:100A50000203E371E37943F00103E37110BD00BFCA
:100A6000F811002010B4114B99689A6B83F82C0090
:100A7000022083F8300093F83C008A1A9A6220B969
:100A800042F205049C8783F83E0059B152B11A7BAB
:100A90005DF8044BD20914BF93F82E0093F82F0091
:100AA000FFF7C6BF5DF8044B704700BF6811002018
:100AB000F8B5204C064600F07F0004EB40041346D6
:100AC00004EBD6120F46D47F14F0010402F1180291
:100AD0004FEAD6114FEA400509D04FF0E023D3F892
:100AE000F00D10F0010001D000BE0020F8BDD67955
:100AF00046F00106D671104E6A18150106EB021277
:100B000077515460138138B90C4A22F81130012210
:100B1000FFF712FF0120E9E75589B3FBF5F4A2B214
:100B200005FB1434A4B20CB9002BF1D1013292B2FE
:100B3000EEE700BFF8110020541B0020121B00201C
:100B400010B5154CA078627888420BD08A421AD131
:100B5000124A0AB9012010BD1149DAB20020AFF3E0
:100B60000080F7E78242F3D0402204F14801FFF70A
:100B70009FFF0028EED14FF0E023D3F8F03DDA07D5
:100B800008D500BEE7E74FF0E023D3F8F03DDB07E0
:100B900000D500BE0020DEE7D400002000000000E9
:100BA000DC000020144B10B5144C6BB1607BAFF32C
:100BB000008048B942F2077384F83E00A387012001
:100BC000BDE81040FFF74EBFA268A36B0C4994F834
:100BD0002F00D21AB2F5805F28BF4FF4805292B234
:100BE000FFF766FF30B94FF0E023D3F8F03DDB07A5
:100BF00000D500BE10BD00BF00000000681100203D
:100C00006801002010F0800F4FF0000211460CBF69
:100C100080201046FFF74CBF10B40346064C006816
:100C20005968224603C20022C4E902225DF8044B3F
:100C30001878FFF7E7BF00BF780000202DE9F74FD5
:100C4000DFF8DC81019104469B460026019B9E4211
:100C500001DB01200FE06378052B04D1E37803F07A
:100C6000030393420AD04FF0E023D3F8F03DDB07B3
:100C700000D500BE002003B0BDE8F08FA77807F0D4
:100C80007F00052807D94FF0E023D3F8F03DDA07BD
:100C9000E9D500BEE7E7604BA1889B78022AC1F343
:100CA0000A010BD0032A6DD0012A13D1022B40F286
:100CB000FF3308BF4FF4806399421BE0022B18D129
:100CC000B1F5007F17D04FF0E023D3F8F03DD907FE
:100CD00000D500BEFFF7ADFC0028C4D0A378D90929
:100CE00016BF0C998BF800300B70237801361C442A
:100CF000ACE74029E7D817F07C0FC4D1430003EBE1
:100D0000D71308EB0313FD09598194F806C083F843
:100D10000CC001F103034FEA930E734638D14FF034
:100D2000A0475B00796A1733994206D23B4909888C
:100D30001944B1F5A07FA6DC7B62E778410101F19F
:100D4000A04107F0030C6746D1F8003B012F14BF08
:100D50004FF08057002743EA8C433B4308EB401792
:100D60007F893B4343F40043C1F8003B4FF0A0436D
:100D700000F11007D3F81C180120B8400843C3F84D
:100D80001C08ABE7022B0CBF4FF48063402393E7B2
:100D9000DFF888904FF0A047B9F800A07D6A0AEB11
:100DA0000E0CAC44BCF5A07F3FF66DAF53449BB234
:100DB0004FEA800CA9F800300CF1A04CC3F5A073E9
:100DC00043EA0E43CCF800314FEA401C94F803E0AC
:100DD0000CF1A04C0EF0030ADCF80099830543EAFD
:100DE0008A43BAF1010F41EA090143F40043D646B0
:100DF00043EA010314BF4FF0805E4FF0000E43EA58
:100E00000E03CCF80039D7F81C18012303FA00F0C0
:100E10000843C7F81C0861E7F81100206C000020A7
:100E2000541B0020F7B50E464979032903D000244E
:100E3000204603B0F0BD3479C4EBC4041234A4B22C
:100E4000A24207D24FF0E023D3F8F03DDA07EED507
:100E500000BEECE71A4D6A78002AF3D13378F01817
:100E60004778212FEED1C5F88800F75C6B1C009302
:100E70000A46AB1C31793844FFF7E0FE0028E1D088
:100E8000B379A878012B04BFF379EB7001232B71A0
:100E9000B3782B70D5F88830B3F80730EB80002892
:100EA000C6D008494022FFF703FE0028C0D14FF00A
:100EB000E023D3F8F03DDB07BAD500BEB8E700BFAA
:100EC000D40000201C01002037B54B79082B0846C0
:100ED00002D0002003B030BD8B79062BF9D1CB793D
:100EE000502BF6D1162A07D84FF0E023D3F8F03D67
:100EF000D907EED500BEECE7154C8B7884F82D3081
:100F00000D7804F12E0302220093114604F12F0301
:100F10002844FFF793FE38B94FF0E023D3F8F03DB3
:100F2000DA07D6D500BED5E7002394F82F0084F861
:100F300030301F222146FFF7BBFD30B94FF0E023D0
:100F4000D3F8F03DDB0700D500BE1720C2E700BF95
:100F50006811002013B5930800EB8303984209D170
:100F600012F0030204D00B68019301A9FFF74CF9BA
:100F700002B010BD0C6840F8044BEFE7930813B5BE
:100F800001EB8303044699420BD112F0030206D011
:100F9000002301A80193FFF737F9019B236002B0FA
:100FA00010BD51F8040B2060EDE7000013B5124BA3
:100FB0009889D98993F90040421A92B2402A28BFF1
:100FC0004022002C0EDA884212D099680B48019218
:100FD000FFF71AF90949019A802002B0BDE81040D4
:100FE000FFF766BD88424FF0000003D10021F4E70F
:100FF0008020FBE70149F0E778000020B8110020CD
:1010000070B50446164D00680B466168AB602E460D
:1010100003C60021E981E1888A4228BF0A46AA81E5
:10102000E18881B152B14BB94FF0E022D2F8F02DF6
:10103000D20701D4002070BD00BEFBE7FFF7B6FF6A
:1010400028B10120F7E72078FFF7DCFDF8E74FF043
:10105000E023D3F8F03DDB07ECD500BEEBE700BFA3
:101060007800002070B51446127802F01F05012D9B
:10107000084601D0002070BD434BA1881E78C9B23C
:101080008E42F7D112F060021ED0202AF2D162788F
:10109000013A0A2AEED801A151F822F00111000804
:1010A000471100085111000875100008751000085C
:1010B0007510000875100008751000081B11000855
:1010C000291100085B11000808B10120D3E76278FC
:1010D000062ACFD16288120A212A09D1D3F88810B2
:1010E0000029C7D020460A78BDE87040FFF788BFC6
:1010F000222ABFD1DA8825492046FFF781FFE4E79D
:101100000028E2D16288D2B2002A34D0E1880129D5
:1011100031D91A721E490122EEE70028D5D1E288A2
:10112000402AA7D81B49E7E70028CED16188090AE1
:101130005971194B1BB1AFF3008000289AD020469B
:10114000FFF76AFDC1E70028BFD114490122D3E7A8
:101150000028BAD112490122CEE70028EFD0022898
:10116000B3D16188C9B219710E4B002BADD00020EC
:10117000AFF30080A9E74FF0E023D3F8F03DDB07A1
:101180007FF578AF00BE75E7D4000020E23A000892
:10119000DC0000201C01002000000000D90000201D
:1011A000D80000200000000037B5154699B9137823
:1011B00003F07F02022A44D16C78012C41D16A8865
:1011C000002A3ED13A49A88891F83030042BC0B2A9
:1011D00003D1FFF72DFC012019E091F82E20904259
:1011E00017D1022BF7D18A6B8B689B1A8B62032372
:1011F00081F830300D222031FFF75AFC0028EAD167
:101200004FF0E023D3F8F03DDB074ED500BE03B02E
:1012100030BD91F82F40A042DDD1002BDBD1254A13
:1012200004F07F0302EB430303EBD4131833DA79A2
:10123000D107D0D4DB799A07CDD41D491F2220468F
:10124000DAE703F06003202B2FD16B78FE2B12D04E
:10125000FF2B2AD16B8843BBE9888AB22ABB144B87
:1012600028469987C3E90D2283F8302083F83E2071
:10127000FFF7D2FCAFE76B88BBB9EB88012B14D129
:101280008DF807300C4B1BB1AFF300808DF80700D1
:101290009DF807304BB1013B01220DF107012846B3
:1012A0008DF80730FFF7ACFE95E70020AFE700BFF1
:1012B00068110020F81100200000000070B50446FD
:1012C000164652B90378012B07D1214B0822C3F8E7
:1012D0008820BFF34F8FBFF36F8F658AA28AADB2AC
:1012E00092B29542A5EB020338BFE2899BB238BFA8
:1012F0009B1A228938BF9BB29A4225D1237B1BBB04
:10130000F6B916E09B1A9BB29342FBD262896068E1
:1013100002FB0300FEF778FF6B1C9BB29D4202D8D4
:10132000228A9A4202D2E28913449BB263826EB946
:1013300001262378012B02D1054B08229A602EB991
:10134000BDE87040FFF775B92B46DDE770BD00BF03
:1013500000E100E07FB504284FF00002CDE9002253
:101360001C4B02928DF8010011D0052819781CD071
:1013700003281FD062F300011970197862F341014C
:1013800019705A70197862F38201197006E01A78A0
:10139000D2070CD51A7842F004021A70012269466D
:1013A0000D4B1868FFF78AFF01E0C807EAD407B0C1
:1013B0005DF804FB4907FAD51978059262F38201BA
:1013C00019700523CDE9032203A98DF80D30012200
:1013D000E6E700BFF81100202412002070B5114E7E
:1013E000054600242046FFF72DF943682846984714
:1013F00033780134E4B20133A342F3DA0A4C2B22EE
:1014000000212046FEF79AFF1022FF21E01CFEF784
:1014100095FF4FF0FF33C4F81330C4F81730C4F809
:101420001B3070BD74000020F811002002488C228F
:101430000021FEF783BF00BFD40000200020FFF78B
:10144000F5BF0000024840220021FEF777BF00BF31
:1014500068110020024840220021FEF76FBF00BF44
:101460006811002008B5064B012205201A60FFF71D
:1014700011F9044A044B1188927819809A7008BDBA
:1014800064010020AC3900086001002008B5074B5A
:10149000022201201A60FFF7FDF8054A054BB2F859
:1014A0000310527919809A7008BD00BF64010020B2
:1014B000AC3900086001002010B5194C227A32B115
:1014C000184B04221A60BDE81040FFF7FFB82368EC
:1014D0002BB3154B197861B11A70124B03221920E6
:1014E0001A60FFF7D7F8114A114B118892781980CA
:1014F0009A70D4E900329A4211D30A4B04221A603E
:10150000FFF7E4F8BFF34F8F0A490B4BCA6802F4A8
:10151000E0621343CB60BFF34F8F00BFFDE710BD08
:10152000E8120020640100201C000020B2390008ED
:101530006001002000ED00E00400FA051FB5002462
:1015400003921A46074BCDE901448DF804000720A9
:101550008DF805008DF80810186801A9FFF7AEFE98
:1015600004B010BD241200202DE9F04FBE4FFB8ABD
:10157000B9685BBA9BB285B0814613B1B1FBF3F396
:101580009BB2BE6BD7F81150B6FBF3F2A1EB060885
:10159000B8F5805F28BF4FF480582DBA03FB126660
:1015A0001544B24842460021FEF7C8FEA6B9B04C29
:1015B000A4F12003B0459A4621D8002E13DB97F8FA
:1015C0002E0040F04181014633463246484605B080
:1015D000BDE8F04FFFF7B2BF4FF0E023D3F8F03D86
:1015E000DB0700D500BE43F20333BB870120002395
:1015F00087F83E3005B0BDE8F04FFFF733BA184624
:101600004FF400720021FEF799FE0346EDB9994AA6
:1016100002F1380E106851689C46ACE803000832AD
:1016200072456346F6D110689288CCF800005523C5
:10163000ACF8042084F8DE31AA2384F8DF310135C8
:1016400006F5007604F50074B2E7B5F5017F3DD8E4
:10165000681E894AB0F5817F28BF6FF4817EB2F899
:1016600046C028BF05EB0E0001020CF1010C01F58C
:10167000807E0A464FF0000B944502F1010294BFB0
:10168000AAF800B0AAF8002096450AF1020AF3D1A0
:1016900048B9F82204F8202CFF2204F81F2C4FF63A
:1016A000FF7224F81E2CDFF8D0C103204FF6FF7E16
:1016B000BCF81620914204D8521AFF2A98BF23F88A
:1016C00012E001380CF1180CF2D1B8E7B5F5027F41
:1016D00051D840F205229542B1D16849A4F11500D4
:1016E0000A78002A40D0013103F8012B8342F7D158
:1016F000282304F8153C624B1B681B0A5B0202930B
:1017000004F160025C4B039221464AF2E93A45F249
:1017100066509A8A01929E460A4601F10B0B9EF88A
:1017200000C0BCF1000F21D00EF1010E02F801CB78
:101730005A45F4D14FF064024A734FF000028A8296
:10174000019A4A83DA68A1F80EA008824882A1F8BB
:1017500016A008836AB11A69CA61039A20319142BE
:1017600003F11803D5D16AE72022BDE74FF0200C22
:10177000DCE7029AF0E7434A95423FF660AF3E4805
:101780006FF4027C05EB0C0200218646A5F2072CC3
:10179000B0F814A0E24503D8B0F816A0E24505D28F
:1017A0000131032900F11800F2D10221182000FBB9
:1017B00001EE0229BEF81400A2EB000202F10200C1
:1017C00014D0DEF81020B2EB402F4FEA40217FF614
:1017D00036AF521ADEF80C00B2F5007F014428BF84
:1017E0004FF400721846FEF70FFD28E7244B02F570
:1017F00000221B6802F58172B3EB022F4FEA02212F
:101800007FF61DAF204A44F8202C02F1144202F565
:101810002C1202F602321B0A44F81C2C44F8083C35
:101820001A4AC4F8DC214FF400534FF4807244F894
:10183000183C174B44F80C0C44F8141C44F8102CBA
:1018400044F8043C2046CEE70849B2B2FFF730F92D
:1018500030B94FF0E023D3F8F03DDB0700D500BEF0
:1018600005B0BDE8F08F00BF6811002068010020BE
:1018700088010020203A0008200000204B3A000890
:10188000D0000020080101005546320A306FB10A2D
:10189000575A75572DE9F04FA44C1D4694F8303037
:1018A000012B97B00E4600F09C81032B00F0CE82F6
:1018B000002B35D194F82F208A4201D0012011E06D
:1018C0001F2D03D121689A4A91420ED094F82E0020
:1018D000042384F83030FFF7ABF894F82F00FFF7BB
:1018E000A7F8002017B0BDE8F08F924AA5682262E1
:1018F000626884F82C30C4E90923C4E90D53E37B02
:10190000012284F8302003F0FD02282A39D1E28A2E
:1019100052BA92B20DBB002A69D00220FFF7A2F89A
:1019200094F83030022BC9D194F82E00824B00F08D
:101930007F0203EB420303EBD0131833DB799B07E1
:10194000BCD4A368A26B934240F2A682217BC90952
:1019500000F0A282FFF76CF8B0E7282B0BD1217BB7
:10196000C909DAD0A2B19542D7D3282B40F03482EE
:10197000FFF7FAFDD4E72A2BF4D1217BC909F1D076
:10198000CBE7B5B1227BD20913D1B5F5805F01D980
:101990000120C3E76949AAB23046FFF789F8002859
:1019A000BED14FF0E023D3F8F03DDC0799D500BE5F
:1019B00098E7252B07D8192B1DD8032B00F0EC80B6
:1019C000122B60D08BB194F83C100029E0D11E2B73
:1019D000AAB21FBF42F2050384F83E104FF6FF7112
:1019E000A3878A4228BF0A465ABB002DD0D10223C2
:1019F00084F8303094E7A3F11A020B2AE3D801A14E
:101A000051F822F0551B0008EB190008C71900080F
:101A1000C7190008C7190008C7190008C719000826
:101A2000C7190008C71900085B1A0008C719000881
:101A3000351A0008414B42494FF40032C3E9001205
:101A40000822A368002BA3D09A4228BF1A466263DB
:101A50003A4994F82E0092B29FE700220D92ADF819
:101A60003C2008228DF83720364A0E9202220DAB18
:101A70008DF83C20ADF83E2093E807002F4D85E817
:101A800007000C22DDE70023CDE90D3380238DF81C
:101A900035304FF0203502231022202111A88DF877
:101AA00036308DF83730CDE90F55FEF747FC264A22
:101AB000159510685168127A06AB03C31A70234B50
:101AC00009AA03F10807164618685968154603C5A0
:101AD0000833BB422A46F7D1998818689B79286059
:101AE000A980AB7106A81A4B0593FEF789FC06A9DD
:101AF00002460FA8FEF788FB3046FEF781FC314610
:101B0000024611A8FEF780FB05A8FEF779FC0DAD93
:101B1000024605A915A8FEF777FB0FCD074E0FC6A5
:101B20000FCD0FC62B68336024228AE7681100208E
:101B30005553424355534253F81100206801002089
:101B40000001010800010109B5390008BE3900088B
:101B5000312E30009DF83620607B03238DF8343021
:101B6000002363F306028DF835308DF83730A94B2A
:101B70008DF8362073B1AFF300809DF8363080F0D9
:101B8000010060F3C7138DF83630A34B0D9A1A602D
:101B9000042256E70120F0E794F83C5094F83E60A8
:101BA00094F83D70122200210DA8FEF7C7FBF02328
:101BB0008DF8343005F00F050A238DF836508DF876
:101BC00041608DF83B308DF840700DAD0FCD924ED9
:101BD0000FC62B6833800023A38784F83E3012227F
:101BE0002FE7E27B282A07D1A36B1D44636BA56313
:101BF0009D42BFF4FCAEBBE62A2A40F0F080DFF83D
:101C000040B20026B542ABF120020CD8A36B002EE7
:101C10001D44A56380F2DC8043F20333A3870023D5
:101C200084F83E30B4E65BF8200C7C49884266D1EB
:101C30005BF81C1C7A4B994261D1DBF8DC017949D5
:101C400088425CD1926822F4FF5222F01E02920474
:101C5000920CB2F5005F52D103F139435BF8042CCA
:101C600003F5C01303F510639A4248D15BF8143CA6
:101C700001936D4A5BF8103C02931169002904DA64
:101C80006A496B4B5160536012696A48DFF8B4C10E
:101C900000214FF0006250F8047B019B90463A44CB
:101CA000934211D264484FF0010C425C00F801C02D
:101CB00079B172B9104687420BD950F80820013229
:101CC00040F0F7800430F6E70131182901D0624571
:101CD000E1D9DFF87481DFF85091DA460027029BE2
:101CE000BB4203DD98F81810012915D14E490A6945
:101CF00042F000420A615BF8081C002943D106F556
:101D000000760BF5007B7DE751F808200132E0D129
:101D100004318F42F8D8DCE701205AF8041B88F818
:101D200018004CF250300391FEF7A8FDF0B9D9F835
:101D3000100020F44070C9F81000D9F8100040F4E9
:101D40000070C9F81000D9F8100040F00100C9F87F
:101D50001000019B0399F9504CF25030FEF78EFDB4
:101D6000D9F8101021F00101C9F81010002188F8ED
:101D700018100028BAD14FF0FF30FEF77FFD002881
:101D8000B4D10437ABE72D4A1068814207D044F242
:101D90006307B94200D808B14FF0FF3111605BF81A
:101DA0000C1C44F263008142A9D801F0070702EB42
:101DB000D101012091F809C0B84010EA0C0FC7B258
:101DC0009DD147EA0C00487251680131516096E795
:101DD000636BAB427FF60BAEFEF7E4FEA0E5A36BB0
:101DE0001D44237BA563DB0906D11E2A1EBF42F2D8
:101DF0000502A28784F83E30636B9D42BFF4F7ADC5
:101E00004FF0E023D3F8F03DDA077FF589AD00BE4F
:101E100086E500BF00000000680100205546320A38
:101E200057515D9E306FB10A003C02402301674567
:101E3000AB89EFCD843C0008161B0020E81200207F
:101E400088010020FFFF0708301B002094F82E3087
:101E50008B427FF465AD0D2D7FF462ADE37B282BC3
:101E600009D02A2B14D0214B53B1607B04F10F0110
:101E7000AFF3008004E01E4B13B1607BAFF3008032
:101E800000231C4994F82F0084F830301F2284E589
:101E9000607BFFF711FBF3E79B1AA362164903234C
:101EA0000D2284F83030FEF703FE00287FF406ADE3
:101EB00077E5124A106920F440701061106940F40F
:101EC00000701061106920F0F8001061106940EA9C
:101ED000C10141F002011161116941F480311161C8
:101EE0004FF0FF30FEF7CAFC002112E700000000AF
:101EF000000000006811002088110020003C024012
:101F00002DE9804897B0234B002108911A6C42F0CC
:101F100080521A641A6C02F080520892089A079153
:101F20001D490A6822F4404242F400420A600A68ED
:101F300002F440420792079A9A6802F00C02042ABF
:101F400007D09A6802F00C02082A2DD15A6857026D
:101F50002AD5104B1B680F4B9A6802F00C02082A16
:101F600000F0AF810D4A002111660D4A1068196812
:101F70008D0100F1A0810B495960084B01211966C0
:101F8000106804490B689C011CD413681B1A022BAF
:101F9000F8D917E0003802400070004000004742C6
:101FA000501B0020085441071A68AC4942F48032A3
:101FB0001A60AB4A10680B689E03CCD413681B1AD6
:101FC000642BF8D9A74B1A6812F0060F00F07B813A
:101FD000A2498B6843F4E0538B608B6843F4604301
:101FE0008B608B6823F0F0038B600B68980100F125
:101FF00073819A4A9C4C936803F00C03042B00F005
:10200000FB81082B00F0FA81984B944923608B6880
:10201000974A984D934EC3F303132846D25C236826
:10202000D3402360FEF752FB002306930A6B42F075
:1020300001020A630A6B02F001020692069A0593F6
:102040000A6B42F002020A630A6B02F00202059276
:10205000059A04930A6B42F004020A630A6B02F0C9
:1020600004020492049A03930B6B43F008030B637E
:102070000B6B03F0080303934FF40052039B0123FF
:10208000CDE9112311A9139302231493FEF726FB24
:102090004FF00053AB61734B5A69D10741BF764A89
:1020A0009A6002F144329A60DA8A597D92B2CC2960
:1020B00018BF5B7D7369337D93071CD06F4F3B7EE8
:1020C000012B18D001234CF250303B76FEF7D6FBA3
:1020D00028B9F38A23F003031B041B0CF3820023AB
:1020E0003B7640B95F4A137D43F0020313754CF20F
:1020F0005030FEF7C3FB5B4A614E536943F0010366
:10210000536132685F4B9A420FD10023192033602C
:10211000FEF7C0FA5C4A5D4B118892789A7019807C
:102120005B4B04221A60FEF7D1FA5A4B5A4A1968DF
:102130005B680A40B2F1005F40F0918103F17743A0
:1021400003F57F03B3F5002F00F28981534B31680B
:1021500099424FF0000340F07D8133604D4B504871
:102160001E68D3F804C000214FF0010E0F274FF076
:1021700002084FF003090EFA01F333F4005248D17C
:1021800021F0030202F1804202F59C3201F00304C7
:10219000A400D2F808A007FA04FB0AEA0B0A08FA1E
:1021A00004F4A2456FEA03030FD104681C400460E5
:1021B00044681C404460C4681C40C46084681C407F
:1021C0008460946824EA0B0494602A684C0009FA3D
:1021D00004F422EA04022A60CA08920002F1804252
:1021E00002F5023201F0070AD2F820B04FEA8A0A5B
:1021F00007FA0AFA2BEA0A0AC2F820A0EA6822EAD9
:102200000402EA606A6813406B60AB6823EA040466
:10221000AC6001311029AED1104B1A6B22F00102D3
:102220001A631A6B22F002021A631A6B22F004027C
:102230001A631A6B22F008021A634FF0E02300229F
:102240001A615A619A614FF0FF32C3F88021C3F8D6
:102250008421C3F88821C3F88C2123E00038024090
:10226000501B0020003C0240000000200024F4002D
:10227000103A0008000802403B2A1908301B0020D1
:10228000FCFF0020B40AE8F5B23900086001002024
:102290006401002000000108030000FFEF6926F040
:1022A000003C0140614AC3F8082D86F3088886F394
:1022B00009886047FEE71168091A02297FF657AEC0
:1022C00080E65B687EE602221A701B6803F0070353
:1022D00093423FF47DAE8CE68B68554A23F00303AE
:1022E00043F002038B60106841F288348B6803F07E
:1022F0000C03082B55D14F4B1A6802F00702022A33
:1023000054D88B6823F4E05343F480538B608B687C
:1023100023F460438B608B6803F00C03042B69D0BB
:10232000082B4CD04448454B454A9B68C3F30313E4
:10233000D35CD840434B18604FF47A73B0FBF3F092
:102340000138B0F1807FBFF454AE4FF0E0223E4C34
:10235000216850613D48F02380F823300725002391
:102360000F29936115613FF644AEC268C2F30222A1
:10237000A81A042802F1040528BF0420062D98BFDE
:102380001A464FF0FF3303FA00F388BF033A21EAFD
:10239000030393401B012D4ADBB282F823302160F6
:1023A00027E613681B1AA342A0D922E602221A705C
:1023B0001B6803F0070393427FF41BAEA1E74A6852
:1023C0004B68496813F4800314BF21481A48C1F3CD
:1023D000881118BF002302F03F02A1FB0001FEF7A5
:1023E0007DF8164B5B68C3F3014301335B00B0FB20
:1023F000F3F098E7164896E7154B06E653685168E0
:1024000013F4800F01F03F01536814BF104A0A4AC9
:10241000B2FBF1F1094A5268C2F30142C3F38813D7
:1024200001324B435200B3FBF2F3EEE5000001082A
:10243000501B0020003C02400024F4000038024001
:10244000103A0008000000206800002000ED00E0C5
:1024500000127A00A84A914240F0A58033604FF400
:10246000C053A64811934FF00308022500260A27FF
:1024700011A9CDE91256CDF850801597FEF72EF927
:102480004FF4806C1223CDE911C30123CDE9133839
:102490001597FEF723F99A4B5A6B42F080025A6364
:1024A00009965A6C42F480425A645B6C4FF0A04229
:1024B00003F480430993099B936B43F400139363E4
:1024C000904B4FF400221A608F4A4FF4801313642C
:1024D0002B4611699382C1F30800490A002818BFEE
:1024E00001310B449BB20636591E122ED18202F1E5
:1024F0001802EED1854B1D78002D40D12B222946A4
:102500008348FDF71BFF834A138955825B009BB20A
:10251000591E5B42D381804B95821A607F4B11829A
:1025200023B17F48AFF300807E4B18607C4E0025BE
:102530002846FEF787F80368984733780135EDB2EF
:102540000133AB42F4DA4FF0A04377491A6C120C16
:1025500012048A423BD075498A4238D001F5803155
:102560008A4234D04FF0E023D3F8F03DD80700D5AD
:1025700000BE6F4B08229A60644A012313706D4BB2
:10258000022201201A60FEF785F86B4A6B4BB2F805
:102590000310527919809A705C4B1B780093002BC2
:1025A00040F02081FEE7664C326001202360FEF798
:1025B00071F84FF40053AB612368B3F5FA7FFBD396
:1025C000FEF784F84FF00053AB610023C5E5D3F864
:1025D000042842F00202C3F80428DA6842F04002FC
:1025E000DA609A6B42F480329A631A6942F001020F
:1025F0001A614FF0A0421369D907FCD44FF0A042F2
:102600001369002BFCDAD36823F4705343F4A0530E
:10261000D36022684B4B9A425ED24B4B9A425DD8B4
:102620004A4B9A425CD24A4B9A425BD8A3F5DB13E1
:10263000A3F5BA539A4257D8A3F5B713A3F5587325
:102640009A4253D8434B9A4252D2434B9A4251D268
:10265000424B9A422CBF0E220F224FF0A043D96862
:1026600021F4705141EA8222DA60D3F8002842F066
:102670000302C3F80028D3F8002E22F00F02C3F89B
:10268000002EDA6842F00702DA60DA6822F0C0420F
:1026900042F08042DA601A6822F0D00242F0C002B2
:1026A0001A60D3F8002842F00402C3F800285A69DF
:1026B00059690A435A615A6859680A435A60284A54
:1026C0009A619A6842F001029A60D3F8042822F0D5
:1026D0000202C3F804284CE70622BEE70722BCE743
:1026E0000822BAE70922B8E70A22B6E70B22B4E7C4
:1026F0000C22B2E70D22B0E7EF6916F000000240AD
:1027000000380240D00000202000002023120020CA
:10271000F811002004000020241200200000000016
:1027200074000020700000200000544F000031555C
:1027300000E100E064010020AC39000860010020E5
:10274000B41100200048E801DF9DA30100366E01AE
:102750003FA44C01807306010024F400C0E1E400B2
:1027600016380080091A89B28842FBD962896368E9
:102770000AA802FB0131FDF747FD009AA38A99B22E
:1027800012FA83F39BB2994202D8218A994202D26B
:10279000E1890B449BB2A3822378012B02D1B04B79
:1027A00008219960002A3FF4F7AE9DF82930013BDB
:1027B000072B00F25283DFE813F008004400D30334
:1027C000A903B80350003303D5039DF82800FEF792
:1027D00005FE1422A3480021FDF7B0FDA24B9DF891
:1027E0002C209A70A14B1C682378012B07D19C4B9D
:1027F0000822C3F88820BFF34F8FBFF36F8F628A20
:10280000A18A92B289B28A4238BFE089A2EB010361
:102810009BB238BF1B1A208938BF9BB298420CD29A
:10282000824204D3258A131A9BB29D4203D2E389C4
:102830000344D21A93B2A3820346002B94D11A46C2
:102840009CE79DF82800FEF7C9FD14220021854869
:10285000FDF774FDFEF71AFEC4E7834C9DF82C804B
:102860002378DFF800929DF828A043F0010323703D
:10287000E37F6FF30003E377E37F6FF38203E37794
:1028800094F820306FF3000384F8203094F820305F
:1028900008F060026FF382030021602A84F8203080
:1028A000C9F8101012D14FF0E023D3F8F03DDC0747
:1028B00000D500BE4FF0A0428020D2F8003B43F488
:1028C0000013C2F8003BFDF74CFE8BE7402A0CD109
:1028D000674B002BEED00BAA5046C9F81030AFF36F
:1028E000008000287FF47EAFE4E708F01F08B8F10D
:1028F000010F00F0EA81B8F1020F00F00D82B8F18B
:10290000000FD0D1202A0FD19DF830300F2BD1D815
:102910002344D878FDF796FE01460028CAD00BAABA
:102920005046FDF7AFFEDCE7002ABCD19DF82D2014
:10293000092AB8D801A151F822F000BFB52C00082F
:10294000A32C0008A72800088F2C0008A72800083F
:10295000652900081D2B0008A7280008AB290008DE
:10296000BD290008DDE90B010023C9E90001C9E91F
:1029700002334FF0A0419DF82E00D1F8002822F438
:10298000FE6242EA0012C1F800283A4AC2E9043362
:102990001383394A5380012218461146FDF7CCFFB4
:1029A000237843F0020323701CE763788DF84430EA
:1029B000012211A90BA8FEF723FB13E79DF82E6057
:1029C00063789E4200F0928063782BB34FF0A04270
:1029D00028494FF00113C2F81C380023C2F8203BED
:1029E0004B85C2F820394B87C2F8403BA1F84A30EA
:1029F000C2F84039A1F85A30C2F8603BA1F86A30F9
:102A0000C2F86039A1F87A301C4BA57810225046E4
:102A10001A80FEF7E3FCA570002E67D02378DFF85C
:102A2000609023F0300343F0100323704FF001084F
:102A300099F80130042B25D04FF0E023D3F8F03D76
:102A4000DB077FF530AF00BE2DE743780B2B03BFCC
:102A5000037890F80380C0184FF001088146E7E73B
:102A600000E100E078000020F8110020241200208E
:102A700000000000541B0020121B00206C000020EE
:102A8000993A0008B84BA3EB090B1FFA8BFB002700
:102A9000B64B1B78FDB20133AB42CDDB2846FDF7C8
:102AA000D1FD5A468368494650469847082833D98D
:102AB000834531D3002209E099F802703B4454FA6F
:102AC00083F30132DF78FF2FB6D1DD70D3B24345F7
:102AD000F2D3484448450ED8A44B1B7801339D429D
:102AE000AADCA14B9842B0D3FEF7BCFC66700BA8E1
:102AF000FEF792F876E699F80130052B08D199F89F
:102B0000022002F07F0304EB430303EBD213DD74D6
:102B100099F800309944DDE70137B9E7BDF82E0098
:102B2000030A5A1EC0B20E2A3FF6C4AE01A151F8E4
:102B300022F000BF712B0008952B0008B32B000872
:102B4000B5280008B5280008772C0008952B000848
:102B5000B5280008B5280008B5280008B5280008E1
:102B6000B5280008B5280008B52800087D2B000806
:102B70007F4912220BA8FEF743FAB2E67D4B002BE9
:102B80003FF498AEAFF30080014600283FF48BAECF
:102B90004A88EFE7022B01D17749F9E7774B002B01
:102BA0003FF488AEAFF3008000283FF47CAE0146CE
:102BB000EEE7C8B1032824D006283FF67BAE704B61
:102BC00053F820402046FDF71BFCC2B21F2A28BF45
:102BD0001F226C4B2046A118884203F1020308D043
:102BE00010F8014B1C80F7E7664B40F209425A800F
:102BF00001220132D2B26349520042F440730B8089
:102C0000B8E7614B5F4CD3F8102A0D92D3F8142A21
:102C10000E92D3F8183A0F930DAF00265B4B11AD0F
:102C200003F1100C2A4618685968AE46AEE8030056
:102C3000083363457546F6D117F801EB16A90EF077
:102C40000F030B4413F8143CA380504B18685968C9
:102C5000154603C5083363452A46F7D116AB03EB87
:102C60001E13013613F8143C63800C2E04F1040487
:102C7000D4D11822BDE7464B002B3FF41BAEAFF377
:102C80000080014600283FF415AE027872E7BDF8D7
:102C90002E30012B7FF40EAE237843F0080323700F
:102CA00025E7BDF82E30012B7FF404AE23786FF3B7
:102CB000C303F4E72378C3F340129B0803F0020335
:102CC0001343ADF84430022273E69DF830300F2BE9
:102CD0003FF6F0AD2344D878FDF7B4FC0146002858
:102CE0003FF4E8AD0BAA5046FDF7CCFC00287FF47A
:102CF00079AD9DF82C3013F060037FF4DBAD9DF8C7
:102D00002D20A2F10A0101293FF6D4AD0A2AC9F803
:102D100010307FF4ECAE49E69DF8301001F07F05ED
:102D2000052D3FF6C0AD04EB450707EBD117CB09E6
:102D3000F87C0193FDF786FC6E00019B83462AB167
:102D400000283FF4B7AD0BAA0146E9E59DF82D2018
:102D500002F0FD0001281DD0002A7FF4A4ADFB7F06
:102D6000C3F34003ADE700BFD03A00087400002071
:102D7000D03A000800000000903A0008000000006F
:102D8000E43C00088C0000200070FF1FCD390008D3
:102D900000000000BDF82E00F8B9012A3CD1FA7FEE
:102DA00097071AD52DB26D0105F1A0453BB3D5F8B3
:102DB000002922F40012C5F80029D5F8002942F0B4
:102DC0008052C5F8002926443344DA7F6FF341026C
:102DD000DA77DA7F6FF30002DA77BBF1000F3FF4A6
:102DE00001AD0BAA59465046FDF74CFC0023C9F82B
:102DF000103094F82030DD073FF5F4AC77E6D5F8D5
:102E0000002B22F40012C5F8002BD5F8002B42F05D
:102E10008052C5F8002BD6E70846FDF709FEDCE72F
:102E20009DF82C10534B01F07F0403EB440303EB9C
:102E3000D113CD09D87F6FF30000D877D87F6FF317
:102E40008200D877002C4BD14B4C9DF8286023781A
:102E50000C9FB5EBD31F18D047B14FF0E023D3F848
:102E6000F03DDB077FF5BEAC00BEBBE4434B1BB1BE
:102E700021463046AFF300802369002B3FF4B2AC0B
:102E80003D4A022130469847ACE494F90030002BCB
:102E900007DBA06800283FF4A5AC39493A46FDF7A6
:102EA000B3F9A268E3893A443B44A260E2889BB24A
:102EB0009A42E38101D03F2F0FD8236933B920789C
:102EC000FDF7A0FE00287FF48DACC6E72A4A012159
:102ED000304698470028F2D1ECE4FEF767F8F1E7B6
:102EE000D87CFDF7AFFB48B94FF0E023D3F8F03DB5
:102EF000D8077FF551AB00BEFFF74EBB04690C9BB2
:102F00009DF82D209DF82800A0476BE4194B1A78F6
:102F1000D1077FF567AC1B4A002A3FF463AC1878F1
:102F2000C0F3C000AFF300805CE4124B1B78DA07FB
:102F30007FF558AC144B002B3FF454ACAFF300803A
:102F400050E4FDF77FFB436913B19DF828009847D3
:102F500001340E4B1B78E0B201338342F1DA41E4D5
:102F60000024F6E70B9B002B3FF43CAC0C989847F1
:102F700038E400BFF81100207800002000000000B5
:102F8000B8110020000000000000000074000020C4
:102F900070470000134A136801331360124B1B681B
:102FA000022B0DD8E3B113681268DBB2D20544BF1F
:102FB000DB43DBB20D4A33B14FF4005393617047EA
:102FC000032B03D070474FF00053F7E7136813F05B
:102FD000010F064B14BF4FF400524FF000529A619C
:102FE000704700BFB41100206401002000080240B7
:102FF0002DE9F04F4FF0A0448BB06269A36902EA5B
:10300000030919F4805F42D04FF48053636180223A
:10301000A6480021FDF792F9A54A00231370D4F8C1
:10302000002822F4FE62C4F800285A0102F1A042EE
:103030000133D2F8001B042B41F00061C2F8001BE1
:10304000F3D14FF0A0434FF00112C3F81C2809221E
:10305000C3F81428C3F8102837225A62954A102161
:103060001180954A9A62D3F8002922F00302C3F82E
:1030700000298E4A402151815183D3F8102B42F010
:10308000C042C3F8102B9A6942F440229A6119F4A5
:10309000005F1CD04FF0A0434FF400525A61D3F8A8
:1030A000082812F0060FC2F3410360D09A1E534263
:1030B00053410022CDE907228DF820307F4B099241
:1030C0001868012207A98DF81D20FEF7F7F819F4FA
:1030D000006F07D04FF0A0434FF400625A61042004
:1030E000FEF738F9B9F1000F07DA4FF0A0434FF0BF
:1030F00000425A610520FEF72DF919F0040F08D09F
:103100004FF0A04465686B0702D50220FEF722F954
:10311000656019F0080F0AD04FF0A04308225A60EA
:103120009A6922F008029A610320FEF713F919F058
:10313000100F48D04FF0A042DFF870A1936923F040
:10314000100393614FF0A0431B6A03F00F06C3F313
:103150000A18C3F34343013B052B00F29B81DFE8D0
:1031600013F00E00B5007C019A00990108000223BB
:103170009FE7534A534B1168196012685A604FF029
:10318000A040446814F01004DCD149490B78A3B185
:10319000464A538D5589AB4238BF2B46B2F84A5048
:1031A000B2F86A20AB4238BF2B46934238BF134671
:1031B0009B085B00173343620C704FF0A042936989
:1031C00043F01003936119F4002F40F06C8119F45F
:1031D000802F5DD0DFF8D4B04FF000094FF0A0434E
:1031E0005FFA89F1D3F8183823FA09F3DF0748D5D5
:1031F0004FEA491808F1A04808F51068D8F80830D7
:10320000DE070FD50122C8F80820B9F1000F40F001
:103210009C812D4B5B88002B00F09781114648461E
:10322000FDF78AFBD8F808301D062AD54FF0A043D9
:103230000122D3F8343802FA09F21A42029220D05D
:10324000D8F810304FEA093AC3F3C9430AF1A04A4B
:1032500003930AF5805A00230193BDF80430039AC2
:103260009A4200F27B81D8F81030C3F3120343B9BD
:103270004FF0A0420299D2F8343823EA0103C2F891
:10328000343809F10109B9F1040F0BF1200BA5D174
:103290000BB0BDE8F08F760106F1A046D6F8103BE2
:1032A00043F0C043C6F8103B69E700BF541B002041
:1032B000A81100206C000020300110002412002012
:1032C00000100050AC110020121B00200AEB461326
:1032D00071015F68002F00F09D80B8F1000F3AD0B7
:1032E000FB89388ADFF834B3B988FA889BB2009337
:1032F0003B7A80B2002B47D1009C009B8442A3EB19
:10330000000338BF78899BB23CBF1B1A9BB2CB1A13
:103310009BB2434528BF43460193009B8B423ED25C
:10332000019C3868CD1AADB2AC4202FB030039D81B
:1033300014FB02F292B25946FDF70CFEDDE90023C0
:1033400013449BB29A4202D8BA899A4202D27A892D
:1033500013449BB2FB810AEB46127301518941452C
:103360007FF60DAF03F1A043D3F8101B13895B1A4E
:103370009BB21381002E7FF402AFA74A11881680FA
:103380005B1AAAF80830FAE6884523BFA8EB0103C8
:10339000CDE9000102FB03BBCDF80480BDE75B1A59
:1033A0009BB2BBE7019C039015FB02F5ADB2641A1A
:1033B0001C4425F003039BB214FB02F294B259465D
:1033C0001A460493FDF7C6FD15F0030520D0C5F19C
:1033D000040292B2A242134628BF23460293E41A83
:1033E000DDE90303DBF80020079207A92A46184409
:1033F000FCF70AFF3B68029A07A929441846FCF724
:1034000003FF029AA4B21044002C97D0224692E700
:103410003868F9E75AF8012080484FEA980302EB30
:1034200083039A4215D118F003005FFA88F40AD09A
:103430007A4A12681A70A70744BF140A5C700328FE
:1034400004BF120C9A705AF8013043444AF8013014
:1034500081E7046842F8044BE3E7002E7FF48FAE67
:10346000B8F1000F7FF48BAE4FF0A0436C491A6C9B
:103470008A427FF684AED3F8082B48F220010A4234
:103480003FF47DAE12F0200F0CBF01222122C3F8C1
:10349000082B74E64FF0E023D3F8F03DDE077FF50C
:1034A0006EAE00BE6BE65F4EDFF86C815E4FDFF8FC
:1034B00070A100244FF0A04204F11001D2F8183896
:1034C000CB40DD075FFA84FB30D56501AB18D3F83C
:1034D000083B180719D519042ED5126C48F20803B9
:1034E000524598BF082305F1A042C2F8083B97E86F
:1034F00003004FF4C06307930AAB03E903004B4B8F
:103500000122186807A9FDF7D9FE05F1A045D5F8F5
:10351000083BDB070AD50122C5F8082B74B9B8F8B7
:1035200000305BB121462046FDF706FA0134042C39
:1035300006F12006BED14AE60823D4E732890123EA
:1035400059460020FDF7FAFFF0E7BBF818200123E9
:1035500041F080010020FDF7F1FF63E6D8F810305C
:10356000BBF81A2032499BB29A4228BF1A46D8F8B3
:10357000183001EA83039A423FF675AEDBF8145027
:10358000002D00F09180E9892B8A89B29BB2994283
:1035900038BF6889A1EB0307BFB238BF3F1AA888BC
:1035A00038BFBFB2B8420ED2814204D3AC890B1AE5
:1035B0009BB29C4203D26B890344C91A8BB22B8203
:1035C0002B8A07469BB297B1974228BF174698426D
:1035D0001ED9C61AEA882968B6B2B74202FB03119F
:1035E00028D817FB02F292B25046FDF7C7FC2B8A8F
:1035F00017FA83F79AB2BFB2BA4202D8AB89BB427C
:1036000002D26B891F44BFB22F82019B013323E694
:103610001B1A9BB2DBE700BF121B002000100050FA
:103620000930544F541B0020AC11002024120020FC
:10363000FCFF030016FB02F6B6B23C1A1C4426F04F
:1036400003039BB214FB02F294B250461A46CDE932
:103650000413FDF793FC16F0030623D0C6F1040211
:1036600092B2A242134628BF23460093E41A0023D5
:103670000793DDE904133246194407A8FCF7C4FD9B
:1036800007AB2968009A04919819FCF7BDFD009BCF
:1036900004991944079BCAF80030A4B2002CA6D0A4
:1036A0002246A1E72968F9E7DBF81030910803EB1F
:1036B0008101994214D112F00300D4B20AD0A407B8
:1036C000197848BF1988032804BF9B7841EA034151
:1036D000CAF80010DBF810301344CBF8103094E730
:1036E00053F8040BCAF80000E3E700BF034AD2F81E
:1036F000883043F47003C2F88830704700ED00E072
:103700002DE9F04F099E88468E4615460446194617
:10371000002B40F0C7804245B2FA82F746D94FB13C
:10372000C7F1200C08FA07F320FA0CFCBD404CEA64
:10373000030EBC404FEA15481FFA85FCBEFBF8F9A2
:10374000220C08FB19E309FB0CFA42EA03439A45F1
:1037500028D9EB1809F1FF3004D29A4502D9A9F112
:1037600002002B44A3EB0A03A4B2B3FBF8F208FB5C
:10377000123302FB0CFC44EA0344A44514D92C196F
:1037800002F1FF3303D2A44501D9931E2C44A4EBCC
:103790000C0443EA00401EB1FC4000233460736017
:1037A000BDE8F08F4846DDE71346F0E702B9FFDEDB
:1037B0008FBBA8EB020301214FEA154EAAB2B3FB5F
:1037C000FEFC200C0EFB1C330CFB02F840EA03430A
:1037D000984563D9EB180CF1FF3004D2984502D913
:1037E000ACF102002B44A3EB0803A4B2B3FBFEFC34
:1037F0000EFB1C330CFB02F244EA0344A2424FD9F5
:103800002C190CF1FF3304D2A24202D9ACF102030D
:103810002C44A41ABDE7C7F1200C28FA0CF908FAC9
:1038200007F320FA0CFCBD404CEA03024FEA154EA8
:10383000ABB2B9FBFEFC110C0EFB1C900CFB03F8A9
:1038400041EA0040804504FA07F423D928180CF116
:10385000FF3104D2804502D9ACF102012844A0EB2B
:10386000080092B2B0FBFEFC0EFB1C000CFB03F840
:1038700042EA004398450FD9EB180CF1FF3204D20D
:10388000984502D9ACF102022B44A3EB080342EAAB
:10389000014191E76146E2E76246F6E76046A2E74A
:1038A0006346B6E7434505D90EB1C6E900080021D5
:1038B000084675E7B3FA83FCBCF1000F10D143450D
:1038C00001D382420AD8841A68EB030301209E4682
:1038D000002E68D0C6E9004E002161E76046F7E798
:1038E000CCF1200E03FA0CF322FA0EF41C4320FA5A
:1038F0000EF108FA0CF328FA0EFB19434FEA1449AB
:1039000002FA0CF5BBFBF9F8A3B209FB18BB0A0CD1
:1039100008FB03FA42EA0B42924500FA0CF73ED943
:10392000A21808F1FF3004D2924502D9A8F1020092
:103930002244A2EB0A0289B2B2FBF9F809FB182271
:1039400008FB03F341EA024293422AD9A21808F184
:10395000FF3104D2934202D9A8F10201224441EA84
:103960000040A0FB0598D21A42454B46414602D37F
:1039700006D14F4504D2B9EB050368EB04010138C9
:103980008EB1FC1A62EB010707FA0EFE24FA0CF363
:103990004EEA030327FA0CF7C6E900379CE74046D6
:0C39A000C7E74146DBE73146FAE60000CD
:1039AC0000FF00FF0000CC6600416461667275691F
:1039BC00740055463220426F6F746C6F616465728F
:1039CC00003031323334353637383941424344458F
:1039DC00460053544D33320053544D333220554628
:1039EC003220424F4F544C4F4144455200554632C1
:1039FC000048463220484944004846322057656208
:103A0C0055534200000000000000000001020304B6
:103A1C0006070809EB3C90554632205546322000EB
:103A2C00020101000240000000F802010100010047
:103A3C0000000000090101008000294200420053EF
:103A4C00544D33324634303143454641543136209F
:103A5C00202009044514000855140008C90E00085C
:103A6C00A911000895180008000000003D1400087A
:103A7C002D140008250E000865100008410B0008E5
:103A8C000000000009024000020100A032090400FD
:103A9C0000020806500407050102400000070581DA
:103AAC000240000009040100020300000509211175
:103ABC000100012222000705020340000A070582CB
:103ACC000340000A12010002000000409A235D002E
:103ADC000001010203010600FF0901A10109021501
:103AEC000026FF007508954081020903150026FF8A
:103AFC0000750895409102C03C21646F6374797025
:103B0C00652068746D6C3E0A3C68746D6C3E3C625A
:103B1C006F64793E3C7363726970743E0A6C6F63B8
:103B2C006174696F6E2E7265706C616365282268B2
:103B3C00747470733A2F2F7777772E73742E636F9C
:103B4C006D2F656E2F6D6963726F636F6E74726F1C
:103B5C006C6C6572732D6D6963726F70726F6365D7
:103B6C0073736F72732F73746D33326634303163C9
:103B7C00652E68746D6C22293B0A3C2F7363726945
:103B8C0070743E3C2F626F64793E3C2F68746D6C90
:103B9C003E0A0054696E7955463220426F6F746C40
:103BAC006F6164657220302E31312E302D31302D05
:103BBC0067393436376533642D6469727479202D16
:103BCC002073742F636D7369735F646576696365C5
:103BDC005F6634202876322E362E38292073742FC7
:103BEC0073746D3332663478785F68616C5F6472BD
:103BFC0069766572202876312E382E302D382D6757
:103C0C0031643939353634292074696E79757362AB
:103C1C002028302E31322E302D3230332D67613446
:103C2C0063666431633639290D0A4D6F64656C3AED
:103C3C002053544D33322053544D33322055463299
:103C4C0020424F4F544C4F414445520D0A426F6134
:103C5C0072642D49443A2053544D3332463430313A
:103C6C0043450D0A446174653A204E6F7620203628
:103C7C0020323032320D0A000040000000400000BB
:103C8C0000400000004000000000010000000200A5
:103C9C000000020000000200000002000000020010
:103CAC000000020000000200004000000040000084
:103CBC000040000000400000000001000000020075
:103CCC0000000200000002000000020000000200E0
:103CDC0000000200000002005E3A0008DE39000815
:103CEC00E4390008001B0020F9390008FD390008F0
:043CFC00053A00087D
:083D000000FAFF7F0100000042
:103D08000024F400010000002812002010000C001C
:103D18000000E0FF1F00000000000000010000009C
:103D2800494E464F5F554632545854009F3B000851
:103D3800E400000000000000494E444558202020BF
:103D480048544D00043B00089A00000000000000A1
:103D580043555252454E542055463200000000004B
:0C3D68000000000000000000100000003F
:0400000508000511D9
:00000001FF
